{
  "_format": "hh-sol-artifact-1",
  "contractName": "Frames",
  "sourceName": "contracts/Frames.sol",
  "abi": [
    {
      "inputs": [
        {
          "internalType": "address",
          "name": "ownerAddress",
          "type": "address"
        }
      ],
      "stateMutability": "nonpayable",
      "type": "constructor"
    },
    {
      "inputs": [
        {
          "internalType": "address",
          "name": "owner",
          "type": "address"
        }
      ],
      "name": "OwnableInvalidOwner",
      "type": "error"
    },
    {
      "inputs": [
        {
          "internalType": "address",
          "name": "account",
          "type": "address"
        }
      ],
      "name": "OwnableUnauthorizedAccount",
      "type": "error"
    },
    {
      "anonymous": false,
      "inputs": [
        {
          "indexed": false,
          "internalType": "uint256",
          "name": "frameId",
          "type": "uint256"
        },
        {
          "indexed": false,
          "internalType": "string",
          "name": "text",
          "type": "string"
        },
        {
          "indexed": false,
          "internalType": "uint256",
          "name": "totalSupply",
          "type": "uint256"
        },
        {
          "indexed": false,
          "internalType": "uint256",
          "name": "rewardAmount",
          "type": "uint256"
        },
        {
          "indexed": false,
          "internalType": "uint256",
          "name": "timestamp",
          "type": "uint256"
        },
        {
          "indexed": false,
          "internalType": "address",
          "name": "creator",
          "type": "address"
        }
      ],
      "name": "FrameCreated",
      "type": "event"
    },
    {
      "anonymous": false,
      "inputs": [
        {
          "indexed": true,
          "internalType": "address",
          "name": "previousOwner",
          "type": "address"
        },
        {
          "indexed": true,
          "internalType": "address",
          "name": "newOwner",
          "type": "address"
        }
      ],
      "name": "OwnershipTransferred",
      "type": "event"
    },
    {
      "anonymous": false,
      "inputs": [
        {
          "indexed": false,
          "internalType": "uint256",
          "name": "rewardId",
          "type": "uint256"
        },
        {
          "indexed": false,
          "internalType": "uint256",
          "name": "frameId",
          "type": "uint256"
        },
        {
          "indexed": false,
          "internalType": "address",
          "name": "receiver",
          "type": "address"
        },
        {
          "indexed": false,
          "internalType": "uint256",
          "name": "amount",
          "type": "uint256"
        },
        {
          "indexed": false,
          "internalType": "uint256",
          "name": "timestamp",
          "type": "uint256"
        }
      ],
      "name": "RewardClaimed",
      "type": "event"
    },
    {
      "inputs": [
        {
          "internalType": "uint256",
          "name": "frameId",
          "type": "uint256"
        }
      ],
      "name": "claimReward",
      "outputs": [],
      "stateMutability": "nonpayable",
      "type": "function"
    },
    {
      "inputs": [
        {
          "internalType": "string",
          "name": "text",
          "type": "string"
        },
        {
          "internalType": "uint256",
          "name": "totalSupply",
          "type": "uint256"
        },
        {
          "internalType": "uint256",
          "name": "rewardAmount",
          "type": "uint256"
        },
        {
          "internalType": "address",
          "name": "erc20Address",
          "type": "address"
        }
      ],
      "name": "createFrame",
      "outputs": [],
      "stateMutability": "nonpayable",
      "type": "function"
    },
    {
      "inputs": [
        {
          "internalType": "uint256",
          "name": "",
          "type": "uint256"
        },
        {
          "internalType": "uint256",
          "name": "",
          "type": "uint256"
        }
      ],
      "name": "frameRewards",
      "outputs": [
        {
          "internalType": "uint256",
          "name": "",
          "type": "uint256"
        }
      ],
      "stateMutability": "view",
      "type": "function"
    },
    {
      "inputs": [
        {
          "internalType": "uint256",
          "name": "",
          "type": "uint256"
        }
      ],
      "name": "frames",
      "outputs": [
        {
          "internalType": "uint256",
          "name": "frameId",
          "type": "uint256"
        },
        {
          "internalType": "string",
          "name": "text",
          "type": "string"
        },
        {
          "internalType": "address",
          "name": "erc20Address",
          "type": "address"
        },
        {
          "internalType": "uint256",
          "name": "totalSupply",
          "type": "uint256"
        },
        {
          "internalType": "uint256",
          "name": "rewardAmount",
          "type": "uint256"
        },
        {
          "internalType": "uint256",
          "name": "timestamp",
          "type": "uint256"
        },
        {
          "internalType": "address",
          "name": "creator",
          "type": "address"
        }
      ],
      "stateMutability": "view",
      "type": "function"
    },
    {
      "inputs": [
        {
          "internalType": "uint256",
          "name": "frameId",
          "type": "uint256"
        }
      ],
      "name": "getFrame",
      "outputs": [
        {
          "components": [
            {
              "internalType": "uint256",
              "name": "frameId",
              "type": "uint256"
            },
            {
              "internalType": "string",
              "name": "text",
              "type": "string"
            },
            {
              "internalType": "address",
              "name": "erc20Address",
              "type": "address"
            },
            {
              "internalType": "uint256",
              "name": "totalSupply",
              "type": "uint256"
            },
            {
              "internalType": "uint256",
              "name": "rewardAmount",
              "type": "uint256"
            },
            {
              "internalType": "uint256",
              "name": "timestamp",
              "type": "uint256"
            },
            {
              "internalType": "address",
              "name": "creator",
              "type": "address"
            }
          ],
          "internalType": "struct Frames.Frame",
          "name": "",
          "type": "tuple"
        }
      ],
      "stateMutability": "view",
      "type": "function"
    },
    {
      "inputs": [],
      "name": "getFrameCount",
      "outputs": [
        {
          "internalType": "uint256",
          "name": "",
          "type": "uint256"
        }
      ],
      "stateMutability": "view",
      "type": "function"
    },
    {
      "inputs": [
        {
          "internalType": "uint256",
          "name": "frameId",
          "type": "uint256"
        }
      ],
      "name": "getFrameRewardCount",
      "outputs": [
        {
          "internalType": "uint256",
          "name": "",
          "type": "uint256"
        }
      ],
      "stateMutability": "view",
      "type": "function"
    },
    {
      "inputs": [
        {
          "internalType": "uint256",
          "name": "frameId",
          "type": "uint256"
        }
      ],
      "name": "getFrameRewardIds",
      "outputs": [
        {
          "internalType": "uint256[]",
          "name": "",
          "type": "uint256[]"
        }
      ],
      "stateMutability": "view",
      "type": "function"
    },
    {
      "inputs": [
        {
          "internalType": "uint256",
          "name": "rewardId",
          "type": "uint256"
        }
      ],
      "name": "getReward",
      "outputs": [
        {
          "components": [
            {
              "internalType": "uint256",
              "name": "rewardId",
              "type": "uint256"
            },
            {
              "internalType": "uint256",
              "name": "frameId",
              "type": "uint256"
            },
            {
              "internalType": "address",
              "name": "receiver",
              "type": "address"
            },
            {
              "internalType": "uint256",
              "name": "amount",
              "type": "uint256"
            },
            {
              "internalType": "uint256",
              "name": "timestamp",
              "type": "uint256"
            }
          ],
          "internalType": "struct Frames.Reward",
          "name": "",
          "type": "tuple"
        }
      ],
      "stateMutability": "view",
      "type": "function"
    },
    {
      "inputs": [],
      "name": "getRewardCount",
      "outputs": [
        {
          "internalType": "uint256",
          "name": "",
          "type": "uint256"
        }
      ],
      "stateMutability": "view",
      "type": "function"
    },
    {
      "inputs": [],
      "name": "owner",
      "outputs": [
        {
          "internalType": "address",
          "name": "",
          "type": "address"
        }
      ],
      "stateMutability": "view",
      "type": "function"
    },
    {
      "inputs": [],
      "name": "renounceOwnership",
      "outputs": [],
      "stateMutability": "nonpayable",
      "type": "function"
    },
    {
      "inputs": [
        {
          "internalType": "uint256",
          "name": "",
          "type": "uint256"
        }
      ],
      "name": "rewards",
      "outputs": [
        {
          "internalType": "uint256",
          "name": "rewardId",
          "type": "uint256"
        },
        {
          "internalType": "uint256",
          "name": "frameId",
          "type": "uint256"
        },
        {
          "internalType": "address",
          "name": "receiver",
          "type": "address"
        },
        {
          "internalType": "uint256",
          "name": "amount",
          "type": "uint256"
        },
        {
          "internalType": "uint256",
          "name": "timestamp",
          "type": "uint256"
        }
      ],
      "stateMutability": "view",
      "type": "function"
    },
    {
      "inputs": [
        {
          "internalType": "address",
          "name": "newOwner",
          "type": "address"
        }
      ],
      "name": "transferOwnership",
      "outputs": [],
      "stateMutability": "nonpayable",
      "type": "function"
    }
  ],
  "bytecode": "0x60806040523480156200001157600080fd5b50604051620021f7380380620021f78339818101604052810190620000379190620001f4565b80600073ffffffffffffffffffffffffffffffffffffffff168173ffffffffffffffffffffffffffffffffffffffff1603620000ad5760006040517f1e4fbdf7000000000000000000000000000000000000000000000000000000008152600401620000a4919062000237565b60405180910390fd5b620000be81620000c660201b60201c565b505062000254565b60008060009054906101000a900473ffffffffffffffffffffffffffffffffffffffff169050816000806101000a81548173ffffffffffffffffffffffffffffffffffffffff021916908373ffffffffffffffffffffffffffffffffffffffff1602179055508173ffffffffffffffffffffffffffffffffffffffff168173ffffffffffffffffffffffffffffffffffffffff167f8be0079c531659141344cd1fd0a4f28419497f9722a3daafe3b4186f6b6457e060405160405180910390a35050565b600080fd5b600073ffffffffffffffffffffffffffffffffffffffff82169050919050565b6000620001bc826200018f565b9050919050565b620001ce81620001af565b8114620001da57600080fd5b50565b600081519050620001ee81620001c3565b92915050565b6000602082840312156200020d576200020c6200018a565b5b60006200021d84828501620001dd565b91505092915050565b6200023181620001af565b82525050565b60006020820190506200024e600083018462000226565b92915050565b611f9380620002646000396000f3fe608060405234801561001057600080fd5b50600436106100ea5760003560e01c80638da5cb5b1161008c578063ae169a5011610066578063ae169a5014610279578063afc4484f14610295578063f2fde38b146102b1578063f301af42146102cd576100ea565b80638da5cb5b1461020757806392d6388014610225578063a10340bc14610243576100ea565b8063715018a6116100c8578063715018a61461017f578063773d51eb146101895780637921938b146101b95780637e7e8eec146101e9576100ea565b80631c4b774b146100ef5780634a6651271461011f578063553705e91461014f575b600080fd5b6101096004803603810190610104919061123a565b610301565b604051610116919061131f565b60405180910390f35b6101396004803603810190610134919061123a565b6103bb565b6040516101469190611349565b60405180910390f35b6101696004803603810190610164919061123a565b6103db565b6040516101769190611413565b60405180910390f35b610187610446565b005b6101a3600480360381019061019e919061123a565b61045a565b6040516101b09190611561565b60405180910390f35b6101d360048036038101906101ce9190611583565b6105fc565b6040516101e09190611349565b60405180910390f35b6101f161062d565b6040516101fe9190611349565b60405180910390f35b61020f61063a565b60405161021c91906115d2565b60405180910390f35b61022d610663565b60405161023a9190611349565b60405180910390f35b61025d6004803603810190610258919061123a565b610670565b6040516102709796959493929190611637565b60405180910390f35b610293600480360381019061028e919061123a565b61078a565b005b6102af60048036038101906102aa919061180e565b610bfc565b005b6102cb60048036038101906102c69190611891565b610f03565b005b6102e760048036038101906102e2919061123a565b610f89565b6040516102f89594939291906118be565b60405180910390f35b610309611142565b6002828154811061031d5761031c611911565b5b90600052602060002090600502016040518060a001604052908160008201548152602001600182015481526020016002820160009054906101000a900473ffffffffffffffffffffffffffffffffffffffff1673ffffffffffffffffffffffffffffffffffffffff1673ffffffffffffffffffffffffffffffffffffffff168152602001600382015481526020016004820154815250509050919050565b600060036000838152602001908152602001600020805490509050919050565b60606003600083815260200190815260200160002080548060200260200160405190810160405280929190818152602001828054801561043a57602002820191906000526020600020905b815481526020019060010190808311610426575b50505050509050919050565b61044e610fef565b6104586000611076565b565b610462611187565b6001828154811061047657610475611911565b5b90600052602060002090600702016040518060e0016040529081600082015481526020016001820180546104a99061196f565b80601f01602080910402602001604051908101604052809291908181526020018280546104d59061196f565b80156105225780601f106104f757610100808354040283529160200191610522565b820191906000526020600020905b81548152906001019060200180831161050557829003601f168201915b505050505081526020016002820160009054906101000a900473ffffffffffffffffffffffffffffffffffffffff1673ffffffffffffffffffffffffffffffffffffffff1673ffffffffffffffffffffffffffffffffffffffff1681526020016003820154815260200160048201548152602001600582015481526020016006820160009054906101000a900473ffffffffffffffffffffffffffffffffffffffff1673ffffffffffffffffffffffffffffffffffffffff1673ffffffffffffffffffffffffffffffffffffffff16815250509050919050565b6003602052816000526040600020818154811061061857600080fd5b90600052602060002001600091509150505481565b6000600280549050905090565b60008060009054906101000a900473ffffffffffffffffffffffffffffffffffffffff16905090565b6000600180549050905090565b6001818154811061068057600080fd5b90600052602060002090600702016000915090508060000154908060010180546106a99061196f565b80601f01602080910402602001604051908101604052809291908181526020018280546106d59061196f565b80156107225780601f106106f757610100808354040283529160200191610722565b820191906000526020600020905b81548152906001019060200180831161070557829003601f168201915b5050505050908060020160009054906101000a900473ffffffffffffffffffffffffffffffffffffffff16908060030154908060040154908060050154908060060160009054906101000a900473ffffffffffffffffffffffffffffffffffffffff16905087565b6000600182815481106107a05761079f611911565b5b90600052602060002090600702016040518060e0016040529081600082015481526020016001820180546107d39061196f565b80601f01602080910402602001604051908101604052809291908181526020018280546107ff9061196f565b801561084c5780601f106108215761010080835404028352916020019161084c565b820191906000526020600020905b81548152906001019060200180831161082f57829003601f168201915b505050505081526020016002820160009054906101000a900473ffffffffffffffffffffffffffffffffffffffff1673ffffffffffffffffffffffffffffffffffffffff1673ffffffffffffffffffffffffffffffffffffffff1681526020016003820154815260200160048201548152602001600582015481526020016006820160009054906101000a900473ffffffffffffffffffffffffffffffffffffffff1673ffffffffffffffffffffffffffffffffffffffff1673ffffffffffffffffffffffffffffffffffffffff168152505090506000816060015111610968576040517f08c379a000000000000000000000000000000000000000000000000000000000815260040161095f906119ec565b60405180910390fd5b80608001518160600151116109b2576040517f08c379a00000000000000000000000000000000000000000000000000000000081526004016109a990611a58565b60405180910390fd5b60006040518060a0016040528060028054905081526020018481526020013373ffffffffffffffffffffffffffffffffffffffff168152602001836080015181526020014281525090506002819080600181540180825580915050600190039060005260206000209060050201600090919091909150600082015181600001556020820151816001015560408201518160020160006101000a81548173ffffffffffffffffffffffffffffffffffffffff021916908373ffffffffffffffffffffffffffffffffffffffff1602179055506060820151816003015560808201518160040155505060036000848152602001908152602001600020816000015190806001815401808255809150506001900390600052602060002001600090919091909150556000826040015190508073ffffffffffffffffffffffffffffffffffffffff1663a9059cbb3385608001516040518363ffffffff1660e01b8152600401610b1f929190611a78565b6020604051808303816000875af1158015610b3e573d6000803e3d6000fd5b505050506040513d601f19601f82011682018060405250810190610b629190611ad9565b50826080015160018581548110610b7c57610b7b611911565b5b90600052602060002090600702016003016000828254610b9c9190611b35565b925050819055507f7ef1954a47bcf45f29bbc3b53d86df999b6f295782796ac65ea2df034711693582600001518360200151846040015185606001518660800151604051610bee9594939291906118be565b60405180910390a150505050565b60006040518060e0016040528060018054905081526020018681526020018373ffffffffffffffffffffffffffffffffffffffff1681526020018581526020018481526020014281526020013373ffffffffffffffffffffffffffffffffffffffff1681525090506001819080600181540180825580915050600190039060005260206000209060070201600090919091909150600082015181600001556020820151816001019081610caf9190611d15565b5060408201518160020160006101000a81548173ffffffffffffffffffffffffffffffffffffffff021916908373ffffffffffffffffffffffffffffffffffffffff160217905550606082015181600301556080820151816004015560a0820151816005015560c08201518160060160006101000a81548173ffffffffffffffffffffffffffffffffffffffff021916908373ffffffffffffffffffffffffffffffffffffffff16021790555050506000829050848173ffffffffffffffffffffffffffffffffffffffff1663dd62ed3e33306040518363ffffffff1660e01b8152600401610d9f929190611de7565b602060405180830381865afa158015610dbc573d6000803e3d6000fd5b505050506040513d601f19601f82011682018060405250810190610de09190611e25565b1015610e21576040517f08c379a0000000000000000000000000000000000000000000000000000000008152600401610e1890611e9e565b60405180910390fd5b8073ffffffffffffffffffffffffffffffffffffffff166323b872dd3330886040518463ffffffff1660e01b8152600401610e5e93929190611ebe565b6020604051808303816000875af1158015610e7d573d6000803e3d6000fd5b505050506040513d601f19601f82011682018060405250810190610ea19190611ad9565b507f9aa40e0901c973ef98af9f088f6c6e4798ccc9cebf4f4cec10810a672d1b48f482600001518360200151846060015185608001518660a001518760c00151604051610ef396959493929190611ef5565b60405180910390a1505050505050565b610f0b610fef565b600073ffffffffffffffffffffffffffffffffffffffff168173ffffffffffffffffffffffffffffffffffffffff1603610f7d5760006040517f1e4fbdf7000000000000000000000000000000000000000000000000000000008152600401610f7491906115d2565b60405180910390fd5b610f8681611076565b50565b60028181548110610f9957600080fd5b90600052602060002090600502016000915090508060000154908060010154908060020160009054906101000a900473ffffffffffffffffffffffffffffffffffffffff16908060030154908060040154905085565b610ff761113a565b73ffffffffffffffffffffffffffffffffffffffff1661101561063a565b73ffffffffffffffffffffffffffffffffffffffff16146110745761103861113a565b6040517f118cdaa700000000000000000000000000000000000000000000000000000000815260040161106b91906115d2565b60405180910390fd5b565b60008060009054906101000a900473ffffffffffffffffffffffffffffffffffffffff169050816000806101000a81548173ffffffffffffffffffffffffffffffffffffffff021916908373ffffffffffffffffffffffffffffffffffffffff1602179055508173ffffffffffffffffffffffffffffffffffffffff168173ffffffffffffffffffffffffffffffffffffffff167f8be0079c531659141344cd1fd0a4f28419497f9722a3daafe3b4186f6b6457e060405160405180910390a35050565b600033905090565b6040518060a001604052806000815260200160008152602001600073ffffffffffffffffffffffffffffffffffffffff16815260200160008152602001600081525090565b6040518060e001604052806000815260200160608152602001600073ffffffffffffffffffffffffffffffffffffffff168152602001600081526020016000815260200160008152602001600073ffffffffffffffffffffffffffffffffffffffff1681525090565b6000604051905090565b600080fd5b600080fd5b6000819050919050565b61121781611204565b811461122257600080fd5b50565b6000813590506112348161120e565b92915050565b6000602082840312156112505761124f6111fa565b5b600061125e84828501611225565b91505092915050565b61127081611204565b82525050565b600073ffffffffffffffffffffffffffffffffffffffff82169050919050565b60006112a182611276565b9050919050565b6112b181611296565b82525050565b60a0820160008201516112cd6000850182611267565b5060208201516112e06020850182611267565b5060408201516112f360408501826112a8565b5060608201516113066060850182611267565b5060808201516113196080850182611267565b50505050565b600060a08201905061133460008301846112b7565b92915050565b61134381611204565b82525050565b600060208201905061135e600083018461133a565b92915050565b600081519050919050565b600082825260208201905092915050565b6000819050602082019050919050565b600061139c8383611267565b60208301905092915050565b6000602082019050919050565b60006113c082611364565b6113ca818561136f565b93506113d583611380565b8060005b838110156114065781516113ed8882611390565b97506113f8836113a8565b9250506001810190506113d9565b5085935050505092915050565b6000602082019050818103600083015261142d81846113b5565b905092915050565b600081519050919050565b600082825260208201905092915050565b60005b8381101561146f578082015181840152602081019050611454565b60008484015250505050565b6000601f19601f8301169050919050565b600061149782611435565b6114a18185611440565b93506114b1818560208601611451565b6114ba8161147b565b840191505092915050565b600060e0830160008301516114dd6000860182611267565b50602083015184820360208601526114f5828261148c565b915050604083015161150a60408601826112a8565b50606083015161151d6060860182611267565b5060808301516115306080860182611267565b5060a083015161154360a0860182611267565b5060c083015161155660c08601826112a8565b508091505092915050565b6000602082019050818103600083015261157b81846114c5565b905092915050565b6000806040838503121561159a576115996111fa565b5b60006115a885828601611225565b92505060206115b985828601611225565b9150509250929050565b6115cc81611296565b82525050565b60006020820190506115e760008301846115c3565b92915050565b600082825260208201905092915050565b600061160982611435565b61161381856115ed565b9350611623818560208601611451565b61162c8161147b565b840191505092915050565b600060e08201905061164c600083018a61133a565b818103602083015261165e81896115fe565b905061166d60408301886115c3565b61167a606083018761133a565b611687608083018661133a565b61169460a083018561133a565b6116a160c08301846115c3565b98975050505050505050565b600080fd5b600080fd5b7f4e487b7100000000000000000000000000000000000000000000000000000000600052604160045260246000fd5b6116ef8261147b565b810181811067ffffffffffffffff8211171561170e5761170d6116b7565b5b80604052505050565b60006117216111f0565b905061172d82826116e6565b919050565b600067ffffffffffffffff82111561174d5761174c6116b7565b5b6117568261147b565b9050602081019050919050565b82818337600083830152505050565b600061178561178084611732565b611717565b9050828152602081018484840111156117a1576117a06116b2565b5b6117ac848285611763565b509392505050565b600082601f8301126117c9576117c86116ad565b5b81356117d9848260208601611772565b91505092915050565b6117eb81611296565b81146117f657600080fd5b50565b600081359050611808816117e2565b92915050565b60008060008060808587031215611828576118276111fa565b5b600085013567ffffffffffffffff811115611846576118456111ff565b5b611852878288016117b4565b945050602061186387828801611225565b935050604061187487828801611225565b9250506060611885878288016117f9565b91505092959194509250565b6000602082840312156118a7576118a66111fa565b5b60006118b5848285016117f9565b91505092915050565b600060a0820190506118d3600083018861133a565b6118e0602083018761133a565b6118ed60408301866115c3565b6118fa606083018561133a565b611907608083018461133a565b9695505050505050565b7f4e487b7100000000000000000000000000000000000000000000000000000000600052603260045260246000fd5b7f4e487b7100000000000000000000000000000000000000000000000000000000600052602260045260246000fd5b6000600282049050600182168061198757607f821691505b60208210810361199a57611999611940565b5b50919050565b7f4672616d6520646f6573206e6f74206578697374000000000000000000000000600082015250565b60006119d66014836115ed565b91506119e1826119a0565b602082019050919050565b60006020820190508181036000830152611a05816119c9565b9050919050565b7f416c6c207265776172647320636c61696d656400000000000000000000000000600082015250565b6000611a426013836115ed565b9150611a4d82611a0c565b602082019050919050565b60006020820190508181036000830152611a7181611a35565b9050919050565b6000604082019050611a8d60008301856115c3565b611a9a602083018461133a565b9392505050565b60008115159050919050565b611ab681611aa1565b8114611ac157600080fd5b50565b600081519050611ad381611aad565b92915050565b600060208284031215611aef57611aee6111fa565b5b6000611afd84828501611ac4565b91505092915050565b7f4e487b7100000000000000000000000000000000000000000000000000000000600052601160045260246000fd5b6000611b4082611204565b9150611b4b83611204565b9250828203905081811115611b6357611b62611b06565b5b92915050565b60008190508160005260206000209050919050565b60006020601f8301049050919050565b600082821b905092915050565b600060088302611bcb7fffffffffffffffffffffffffffffffffffffffffffffffffffffffffffffffff82611b8e565b611bd58683611b8e565b95508019841693508086168417925050509392505050565b6000819050919050565b6000611c12611c0d611c0884611204565b611bed565b611204565b9050919050565b6000819050919050565b611c2c83611bf7565b611c40611c3882611c19565b848454611b9b565b825550505050565b600090565b611c55611c48565b611c60818484611c23565b505050565b5b81811015611c8457611c79600082611c4d565b600181019050611c66565b5050565b601f821115611cc957611c9a81611b69565b611ca384611b7e565b81016020851015611cb2578190505b611cc6611cbe85611b7e565b830182611c65565b50505b505050565b600082821c905092915050565b6000611cec60001984600802611cce565b1980831691505092915050565b6000611d058383611cdb565b9150826002028217905092915050565b611d1e82611435565b67ffffffffffffffff811115611d3757611d366116b7565b5b611d41825461196f565b611d4c828285611c88565b600060209050601f831160018114611d7f5760008415611d6d578287015190505b611d778582611cf9565b865550611ddf565b601f198416611d8d86611b69565b60005b82811015611db557848901518255600182019150602085019450602081019050611d90565b86831015611dd25784890151611dce601f891682611cdb565b8355505b6001600288020188555050505b505050505050565b6000604082019050611dfc60008301856115c3565b611e0960208301846115c3565b9392505050565b600081519050611e1f8161120e565b92915050565b600060208284031215611e3b57611e3a6111fa565b5b6000611e4984828501611e10565b91505092915050565b7f4e6f7420656e6f75676820616c6c6f77616e6365000000000000000000000000600082015250565b6000611e886014836115ed565b9150611e9382611e52565b602082019050919050565b60006020820190508181036000830152611eb781611e7b565b9050919050565b6000606082019050611ed360008301866115c3565b611ee060208301856115c3565b611eed604083018461133a565b949350505050565b600060c082019050611f0a600083018961133a565b8181036020830152611f1c81886115fe565b9050611f2b604083018761133a565b611f38606083018661133a565b611f45608083018561133a565b611f5260a08301846115c3565b97965050505050505056fea264697066735822122004278fe6d61060a1c3a30fd8a4426ba512de8d92258605a1fd76ade2b123df3064736f6c63430008180033",
  "linkReferences": {},
  "deployedLinkReferences": {}
}