{
  "contracts/Frames.sol": {
    "Frames": {
      "abi": [
        {
          "inputs": [
            {
              "internalType": "address",
              "name": "ownerAddress",
              "type": "address"
            }
          ],
          "stateMutability": "nonpayable",
          "type": "constructor"
        },
        {
          "inputs": [
            {
              "internalType": "address",
              "name": "owner",
              "type": "address"
            }
          ],
          "name": "OwnableInvalidOwner",
          "type": "error"
        },
        {
          "inputs": [
            {
              "internalType": "address",
              "name": "account",
              "type": "address"
            }
          ],
          "name": "OwnableUnauthorizedAccount",
          "type": "error"
        },
        {
          "anonymous": false,
          "inputs": [
            {
              "indexed": false,
              "internalType": "uint256",
              "name": "frameId",
              "type": "uint256"
            },
            {
              "indexed": false,
              "internalType": "string",
              "name": "text",
              "type": "string"
            },
            {
              "indexed": false,
              "internalType": "uint256",
              "name": "totalSupply",
              "type": "uint256"
            },
            {
              "indexed": false,
              "internalType": "uint256",
              "name": "rewardAmount",
              "type": "uint256"
            },
            {
              "indexed": false,
              "internalType": "uint256",
              "name": "timestamp",
              "type": "uint256"
            },
            {
              "indexed": false,
              "internalType": "address",
              "name": "creator",
              "type": "address"
            }
          ],
          "name": "FrameCreated",
          "type": "event"
        },
        {
          "anonymous": false,
          "inputs": [
            {
              "indexed": true,
              "internalType": "address",
              "name": "previousOwner",
              "type": "address"
            },
            {
              "indexed": true,
              "internalType": "address",
              "name": "newOwner",
              "type": "address"
            }
          ],
          "name": "OwnershipTransferred",
          "type": "event"
        },
        {
          "anonymous": false,
          "inputs": [
            {
              "indexed": false,
              "internalType": "uint256",
              "name": "rewardId",
              "type": "uint256"
            },
            {
              "indexed": false,
              "internalType": "uint256",
              "name": "frameId",
              "type": "uint256"
            },
            {
              "indexed": false,
              "internalType": "address",
              "name": "receiver",
              "type": "address"
            },
            {
              "indexed": false,
              "internalType": "uint256",
              "name": "amount",
              "type": "uint256"
            },
            {
              "indexed": false,
              "internalType": "uint256",
              "name": "timestamp",
              "type": "uint256"
            }
          ],
          "name": "RewardClaimed",
          "type": "event"
        },
        {
          "inputs": [
            {
              "internalType": "uint256",
              "name": "frameId",
              "type": "uint256"
            }
          ],
          "name": "claimReward",
          "outputs": [],
          "stateMutability": "nonpayable",
          "type": "function"
        },
        {
          "inputs": [
            {
              "internalType": "string",
              "name": "text",
              "type": "string"
            },
            {
              "internalType": "uint256",
              "name": "totalSupply",
              "type": "uint256"
            },
            {
              "internalType": "uint256",
              "name": "rewardAmount",
              "type": "uint256"
            },
            {
              "internalType": "address",
              "name": "erc20Address",
              "type": "address"
            }
          ],
          "name": "createFrame",
          "outputs": [],
          "stateMutability": "nonpayable",
          "type": "function"
        },
        {
          "inputs": [
            {
              "internalType": "uint256",
              "name": "",
              "type": "uint256"
            },
            {
              "internalType": "uint256",
              "name": "",
              "type": "uint256"
            }
          ],
          "name": "frameRewards",
          "outputs": [
            {
              "internalType": "uint256",
              "name": "",
              "type": "uint256"
            }
          ],
          "stateMutability": "view",
          "type": "function"
        },
        {
          "inputs": [
            {
              "internalType": "uint256",
              "name": "",
              "type": "uint256"
            }
          ],
          "name": "frames",
          "outputs": [
            {
              "internalType": "uint256",
              "name": "frameId",
              "type": "uint256"
            },
            {
              "internalType": "string",
              "name": "text",
              "type": "string"
            },
            {
              "internalType": "address",
              "name": "erc20Address",
              "type": "address"
            },
            {
              "internalType": "uint256",
              "name": "totalSupply",
              "type": "uint256"
            },
            {
              "internalType": "uint256",
              "name": "rewardAmount",
              "type": "uint256"
            },
            {
              "internalType": "uint256",
              "name": "timestamp",
              "type": "uint256"
            },
            {
              "internalType": "address",
              "name": "creator",
              "type": "address"
            }
          ],
          "stateMutability": "view",
          "type": "function"
        },
        {
          "inputs": [
            {
              "internalType": "uint256",
              "name": "frameId",
              "type": "uint256"
            }
          ],
          "name": "getFrame",
          "outputs": [
            {
              "components": [
                {
                  "internalType": "uint256",
                  "name": "frameId",
                  "type": "uint256"
                },
                {
                  "internalType": "string",
                  "name": "text",
                  "type": "string"
                },
                {
                  "internalType": "address",
                  "name": "erc20Address",
                  "type": "address"
                },
                {
                  "internalType": "uint256",
                  "name": "totalSupply",
                  "type": "uint256"
                },
                {
                  "internalType": "uint256",
                  "name": "rewardAmount",
                  "type": "uint256"
                },
                {
                  "internalType": "uint256",
                  "name": "timestamp",
                  "type": "uint256"
                },
                {
                  "internalType": "address",
                  "name": "creator",
                  "type": "address"
                }
              ],
              "internalType": "struct Frames.Frame",
              "name": "",
              "type": "tuple"
            }
          ],
          "stateMutability": "view",
          "type": "function"
        },
        {
          "inputs": [],
          "name": "getFrameCount",
          "outputs": [
            {
              "internalType": "uint256",
              "name": "",
              "type": "uint256"
            }
          ],
          "stateMutability": "view",
          "type": "function"
        },
        {
          "inputs": [
            {
              "internalType": "uint256",
              "name": "frameId",
              "type": "uint256"
            }
          ],
          "name": "getFrameRewardCount",
          "outputs": [
            {
              "internalType": "uint256",
              "name": "",
              "type": "uint256"
            }
          ],
          "stateMutability": "view",
          "type": "function"
        },
        {
          "inputs": [
            {
              "internalType": "uint256",
              "name": "frameId",
              "type": "uint256"
            }
          ],
          "name": "getFrameRewardIds",
          "outputs": [
            {
              "internalType": "uint256[]",
              "name": "",
              "type": "uint256[]"
            }
          ],
          "stateMutability": "view",
          "type": "function"
        },
        {
          "inputs": [
            {
              "internalType": "uint256",
              "name": "rewardId",
              "type": "uint256"
            }
          ],
          "name": "getReward",
          "outputs": [
            {
              "components": [
                {
                  "internalType": "uint256",
                  "name": "rewardId",
                  "type": "uint256"
                },
                {
                  "internalType": "uint256",
                  "name": "frameId",
                  "type": "uint256"
                },
                {
                  "internalType": "address",
                  "name": "receiver",
                  "type": "address"
                },
                {
                  "internalType": "uint256",
                  "name": "amount",
                  "type": "uint256"
                },
                {
                  "internalType": "uint256",
                  "name": "timestamp",
                  "type": "uint256"
                }
              ],
              "internalType": "struct Frames.Reward",
              "name": "",
              "type": "tuple"
            }
          ],
          "stateMutability": "view",
          "type": "function"
        },
        {
          "inputs": [],
          "name": "getRewardCount",
          "outputs": [
            {
              "internalType": "uint256",
              "name": "",
              "type": "uint256"
            }
          ],
          "stateMutability": "view",
          "type": "function"
        },
        {
          "inputs": [],
          "name": "owner",
          "outputs": [
            {
              "internalType": "address",
              "name": "",
              "type": "address"
            }
          ],
          "stateMutability": "view",
          "type": "function"
        },
        {
          "inputs": [],
          "name": "renounceOwnership",
          "outputs": [],
          "stateMutability": "nonpayable",
          "type": "function"
        },
        {
          "inputs": [
            {
              "internalType": "uint256",
              "name": "",
              "type": "uint256"
            }
          ],
          "name": "rewards",
          "outputs": [
            {
              "internalType": "uint256",
              "name": "rewardId",
              "type": "uint256"
            },
            {
              "internalType": "uint256",
              "name": "frameId",
              "type": "uint256"
            },
            {
              "internalType": "address",
              "name": "receiver",
              "type": "address"
            },
            {
              "internalType": "uint256",
              "name": "amount",
              "type": "uint256"
            },
            {
              "internalType": "uint256",
              "name": "timestamp",
              "type": "uint256"
            }
          ],
          "stateMutability": "view",
          "type": "function"
        },
        {
          "inputs": [
            {
              "internalType": "address",
              "name": "newOwner",
              "type": "address"
            }
          ],
          "name": "transferOwnership",
          "outputs": [],
          "stateMutability": "nonpayable",
          "type": "function"
        }
      ],
      "evm": {
        "bytecode": {
          "linkReferences": {},
          "object": "60806040523480156200001157600080fd5b50604051620021f7380380620021f78339818101604052810190620000379190620001f4565b80600073ffffffffffffffffffffffffffffffffffffffff168173ffffffffffffffffffffffffffffffffffffffff1603620000ad5760006040517f1e4fbdf7000000000000000000000000000000000000000000000000000000008152600401620000a4919062000237565b60405180910390fd5b620000be81620000c660201b60201c565b505062000254565b60008060009054906101000a900473ffffffffffffffffffffffffffffffffffffffff169050816000806101000a81548173ffffffffffffffffffffffffffffffffffffffff021916908373ffffffffffffffffffffffffffffffffffffffff1602179055508173ffffffffffffffffffffffffffffffffffffffff168173ffffffffffffffffffffffffffffffffffffffff167f8be0079c531659141344cd1fd0a4f28419497f9722a3daafe3b4186f6b6457e060405160405180910390a35050565b600080fd5b600073ffffffffffffffffffffffffffffffffffffffff82169050919050565b6000620001bc826200018f565b9050919050565b620001ce81620001af565b8114620001da57600080fd5b50565b600081519050620001ee81620001c3565b92915050565b6000602082840312156200020d576200020c6200018a565b5b60006200021d84828501620001dd565b91505092915050565b6200023181620001af565b82525050565b60006020820190506200024e600083018462000226565b92915050565b611f9380620002646000396000f3fe608060405234801561001057600080fd5b50600436106100ea5760003560e01c80638da5cb5b1161008c578063ae169a5011610066578063ae169a5014610279578063afc4484f14610295578063f2fde38b146102b1578063f301af42146102cd576100ea565b80638da5cb5b1461020757806392d6388014610225578063a10340bc14610243576100ea565b8063715018a6116100c8578063715018a61461017f578063773d51eb146101895780637921938b146101b95780637e7e8eec146101e9576100ea565b80631c4b774b146100ef5780634a6651271461011f578063553705e91461014f575b600080fd5b6101096004803603810190610104919061123a565b610301565b604051610116919061131f565b60405180910390f35b6101396004803603810190610134919061123a565b6103bb565b6040516101469190611349565b60405180910390f35b6101696004803603810190610164919061123a565b6103db565b6040516101769190611413565b60405180910390f35b610187610446565b005b6101a3600480360381019061019e919061123a565b61045a565b6040516101b09190611561565b60405180910390f35b6101d360048036038101906101ce9190611583565b6105fc565b6040516101e09190611349565b60405180910390f35b6101f161062d565b6040516101fe9190611349565b60405180910390f35b61020f61063a565b60405161021c91906115d2565b60405180910390f35b61022d610663565b60405161023a9190611349565b60405180910390f35b61025d6004803603810190610258919061123a565b610670565b6040516102709796959493929190611637565b60405180910390f35b610293600480360381019061028e919061123a565b61078a565b005b6102af60048036038101906102aa919061180e565b610bfc565b005b6102cb60048036038101906102c69190611891565b610f03565b005b6102e760048036038101906102e2919061123a565b610f89565b6040516102f89594939291906118be565b60405180910390f35b610309611142565b6002828154811061031d5761031c611911565b5b90600052602060002090600502016040518060a001604052908160008201548152602001600182015481526020016002820160009054906101000a900473ffffffffffffffffffffffffffffffffffffffff1673ffffffffffffffffffffffffffffffffffffffff1673ffffffffffffffffffffffffffffffffffffffff168152602001600382015481526020016004820154815250509050919050565b600060036000838152602001908152602001600020805490509050919050565b60606003600083815260200190815260200160002080548060200260200160405190810160405280929190818152602001828054801561043a57602002820191906000526020600020905b815481526020019060010190808311610426575b50505050509050919050565b61044e610fef565b6104586000611076565b565b610462611187565b6001828154811061047657610475611911565b5b90600052602060002090600702016040518060e0016040529081600082015481526020016001820180546104a99061196f565b80601f01602080910402602001604051908101604052809291908181526020018280546104d59061196f565b80156105225780601f106104f757610100808354040283529160200191610522565b820191906000526020600020905b81548152906001019060200180831161050557829003601f168201915b505050505081526020016002820160009054906101000a900473ffffffffffffffffffffffffffffffffffffffff1673ffffffffffffffffffffffffffffffffffffffff1673ffffffffffffffffffffffffffffffffffffffff1681526020016003820154815260200160048201548152602001600582015481526020016006820160009054906101000a900473ffffffffffffffffffffffffffffffffffffffff1673ffffffffffffffffffffffffffffffffffffffff1673ffffffffffffffffffffffffffffffffffffffff16815250509050919050565b6003602052816000526040600020818154811061061857600080fd5b90600052602060002001600091509150505481565b6000600280549050905090565b60008060009054906101000a900473ffffffffffffffffffffffffffffffffffffffff16905090565b6000600180549050905090565b6001818154811061068057600080fd5b90600052602060002090600702016000915090508060000154908060010180546106a99061196f565b80601f01602080910402602001604051908101604052809291908181526020018280546106d59061196f565b80156107225780601f106106f757610100808354040283529160200191610722565b820191906000526020600020905b81548152906001019060200180831161070557829003601f168201915b5050505050908060020160009054906101000a900473ffffffffffffffffffffffffffffffffffffffff16908060030154908060040154908060050154908060060160009054906101000a900473ffffffffffffffffffffffffffffffffffffffff16905087565b6000600182815481106107a05761079f611911565b5b90600052602060002090600702016040518060e0016040529081600082015481526020016001820180546107d39061196f565b80601f01602080910402602001604051908101604052809291908181526020018280546107ff9061196f565b801561084c5780601f106108215761010080835404028352916020019161084c565b820191906000526020600020905b81548152906001019060200180831161082f57829003601f168201915b505050505081526020016002820160009054906101000a900473ffffffffffffffffffffffffffffffffffffffff1673ffffffffffffffffffffffffffffffffffffffff1673ffffffffffffffffffffffffffffffffffffffff1681526020016003820154815260200160048201548152602001600582015481526020016006820160009054906101000a900473ffffffffffffffffffffffffffffffffffffffff1673ffffffffffffffffffffffffffffffffffffffff1673ffffffffffffffffffffffffffffffffffffffff168152505090506000816060015111610968576040517f08c379a000000000000000000000000000000000000000000000000000000000815260040161095f906119ec565b60405180910390fd5b80608001518160600151116109b2576040517f08c379a00000000000000000000000000000000000000000000000000000000081526004016109a990611a58565b60405180910390fd5b60006040518060a0016040528060028054905081526020018481526020013373ffffffffffffffffffffffffffffffffffffffff168152602001836080015181526020014281525090506002819080600181540180825580915050600190039060005260206000209060050201600090919091909150600082015181600001556020820151816001015560408201518160020160006101000a81548173ffffffffffffffffffffffffffffffffffffffff021916908373ffffffffffffffffffffffffffffffffffffffff1602179055506060820151816003015560808201518160040155505060036000848152602001908152602001600020816000015190806001815401808255809150506001900390600052602060002001600090919091909150556000826040015190508073ffffffffffffffffffffffffffffffffffffffff1663a9059cbb3385608001516040518363ffffffff1660e01b8152600401610b1f929190611a78565b6020604051808303816000875af1158015610b3e573d6000803e3d6000fd5b505050506040513d601f19601f82011682018060405250810190610b629190611ad9565b50826080015160018581548110610b7c57610b7b611911565b5b90600052602060002090600702016003016000828254610b9c9190611b35565b925050819055507f7ef1954a47bcf45f29bbc3b53d86df999b6f295782796ac65ea2df034711693582600001518360200151846040015185606001518660800151604051610bee9594939291906118be565b60405180910390a150505050565b60006040518060e0016040528060018054905081526020018681526020018373ffffffffffffffffffffffffffffffffffffffff1681526020018581526020018481526020014281526020013373ffffffffffffffffffffffffffffffffffffffff1681525090506001819080600181540180825580915050600190039060005260206000209060070201600090919091909150600082015181600001556020820151816001019081610caf9190611d15565b5060408201518160020160006101000a81548173ffffffffffffffffffffffffffffffffffffffff021916908373ffffffffffffffffffffffffffffffffffffffff160217905550606082015181600301556080820151816004015560a0820151816005015560c08201518160060160006101000a81548173ffffffffffffffffffffffffffffffffffffffff021916908373ffffffffffffffffffffffffffffffffffffffff16021790555050506000829050848173ffffffffffffffffffffffffffffffffffffffff1663dd62ed3e33306040518363ffffffff1660e01b8152600401610d9f929190611de7565b602060405180830381865afa158015610dbc573d6000803e3d6000fd5b505050506040513d601f19601f82011682018060405250810190610de09190611e25565b1015610e21576040517f08c379a0000000000000000000000000000000000000000000000000000000008152600401610e1890611e9e565b60405180910390fd5b8073ffffffffffffffffffffffffffffffffffffffff166323b872dd3330886040518463ffffffff1660e01b8152600401610e5e93929190611ebe565b6020604051808303816000875af1158015610e7d573d6000803e3d6000fd5b505050506040513d601f19601f82011682018060405250810190610ea19190611ad9565b507f9aa40e0901c973ef98af9f088f6c6e4798ccc9cebf4f4cec10810a672d1b48f482600001518360200151846060015185608001518660a001518760c00151604051610ef396959493929190611ef5565b60405180910390a1505050505050565b610f0b610fef565b600073ffffffffffffffffffffffffffffffffffffffff168173ffffffffffffffffffffffffffffffffffffffff1603610f7d5760006040517f1e4fbdf7000000000000000000000000000000000000000000000000000000008152600401610f7491906115d2565b60405180910390fd5b610f8681611076565b50565b60028181548110610f9957600080fd5b90600052602060002090600502016000915090508060000154908060010154908060020160009054906101000a900473ffffffffffffffffffffffffffffffffffffffff16908060030154908060040154905085565b610ff761113a565b73ffffffffffffffffffffffffffffffffffffffff1661101561063a565b73ffffffffffffffffffffffffffffffffffffffff16146110745761103861113a565b6040517f118cdaa700000000000000000000000000000000000000000000000000000000815260040161106b91906115d2565b60405180910390fd5b565b60008060009054906101000a900473ffffffffffffffffffffffffffffffffffffffff169050816000806101000a81548173ffffffffffffffffffffffffffffffffffffffff021916908373ffffffffffffffffffffffffffffffffffffffff1602179055508173ffffffffffffffffffffffffffffffffffffffff168173ffffffffffffffffffffffffffffffffffffffff167f8be0079c531659141344cd1fd0a4f28419497f9722a3daafe3b4186f6b6457e060405160405180910390a35050565b600033905090565b6040518060a001604052806000815260200160008152602001600073ffffffffffffffffffffffffffffffffffffffff16815260200160008152602001600081525090565b6040518060e001604052806000815260200160608152602001600073ffffffffffffffffffffffffffffffffffffffff168152602001600081526020016000815260200160008152602001600073ffffffffffffffffffffffffffffffffffffffff1681525090565b6000604051905090565b600080fd5b600080fd5b6000819050919050565b61121781611204565b811461122257600080fd5b50565b6000813590506112348161120e565b92915050565b6000602082840312156112505761124f6111fa565b5b600061125e84828501611225565b91505092915050565b61127081611204565b82525050565b600073ffffffffffffffffffffffffffffffffffffffff82169050919050565b60006112a182611276565b9050919050565b6112b181611296565b82525050565b60a0820160008201516112cd6000850182611267565b5060208201516112e06020850182611267565b5060408201516112f360408501826112a8565b5060608201516113066060850182611267565b5060808201516113196080850182611267565b50505050565b600060a08201905061133460008301846112b7565b92915050565b61134381611204565b82525050565b600060208201905061135e600083018461133a565b92915050565b600081519050919050565b600082825260208201905092915050565b6000819050602082019050919050565b600061139c8383611267565b60208301905092915050565b6000602082019050919050565b60006113c082611364565b6113ca818561136f565b93506113d583611380565b8060005b838110156114065781516113ed8882611390565b97506113f8836113a8565b9250506001810190506113d9565b5085935050505092915050565b6000602082019050818103600083015261142d81846113b5565b905092915050565b600081519050919050565b600082825260208201905092915050565b60005b8381101561146f578082015181840152602081019050611454565b60008484015250505050565b6000601f19601f8301169050919050565b600061149782611435565b6114a18185611440565b93506114b1818560208601611451565b6114ba8161147b565b840191505092915050565b600060e0830160008301516114dd6000860182611267565b50602083015184820360208601526114f5828261148c565b915050604083015161150a60408601826112a8565b50606083015161151d6060860182611267565b5060808301516115306080860182611267565b5060a083015161154360a0860182611267565b5060c083015161155660c08601826112a8565b508091505092915050565b6000602082019050818103600083015261157b81846114c5565b905092915050565b6000806040838503121561159a576115996111fa565b5b60006115a885828601611225565b92505060206115b985828601611225565b9150509250929050565b6115cc81611296565b82525050565b60006020820190506115e760008301846115c3565b92915050565b600082825260208201905092915050565b600061160982611435565b61161381856115ed565b9350611623818560208601611451565b61162c8161147b565b840191505092915050565b600060e08201905061164c600083018a61133a565b818103602083015261165e81896115fe565b905061166d60408301886115c3565b61167a606083018761133a565b611687608083018661133a565b61169460a083018561133a565b6116a160c08301846115c3565b98975050505050505050565b600080fd5b600080fd5b7f4e487b7100000000000000000000000000000000000000000000000000000000600052604160045260246000fd5b6116ef8261147b565b810181811067ffffffffffffffff8211171561170e5761170d6116b7565b5b80604052505050565b60006117216111f0565b905061172d82826116e6565b919050565b600067ffffffffffffffff82111561174d5761174c6116b7565b5b6117568261147b565b9050602081019050919050565b82818337600083830152505050565b600061178561178084611732565b611717565b9050828152602081018484840111156117a1576117a06116b2565b5b6117ac848285611763565b509392505050565b600082601f8301126117c9576117c86116ad565b5b81356117d9848260208601611772565b91505092915050565b6117eb81611296565b81146117f657600080fd5b50565b600081359050611808816117e2565b92915050565b60008060008060808587031215611828576118276111fa565b5b600085013567ffffffffffffffff811115611846576118456111ff565b5b611852878288016117b4565b945050602061186387828801611225565b935050604061187487828801611225565b9250506060611885878288016117f9565b91505092959194509250565b6000602082840312156118a7576118a66111fa565b5b60006118b5848285016117f9565b91505092915050565b600060a0820190506118d3600083018861133a565b6118e0602083018761133a565b6118ed60408301866115c3565b6118fa606083018561133a565b611907608083018461133a565b9695505050505050565b7f4e487b7100000000000000000000000000000000000000000000000000000000600052603260045260246000fd5b7f4e487b7100000000000000000000000000000000000000000000000000000000600052602260045260246000fd5b6000600282049050600182168061198757607f821691505b60208210810361199a57611999611940565b5b50919050565b7f4672616d6520646f6573206e6f74206578697374000000000000000000000000600082015250565b60006119d66014836115ed565b91506119e1826119a0565b602082019050919050565b60006020820190508181036000830152611a05816119c9565b9050919050565b7f416c6c207265776172647320636c61696d656400000000000000000000000000600082015250565b6000611a426013836115ed565b9150611a4d82611a0c565b602082019050919050565b60006020820190508181036000830152611a7181611a35565b9050919050565b6000604082019050611a8d60008301856115c3565b611a9a602083018461133a565b9392505050565b60008115159050919050565b611ab681611aa1565b8114611ac157600080fd5b50565b600081519050611ad381611aad565b92915050565b600060208284031215611aef57611aee6111fa565b5b6000611afd84828501611ac4565b91505092915050565b7f4e487b7100000000000000000000000000000000000000000000000000000000600052601160045260246000fd5b6000611b4082611204565b9150611b4b83611204565b9250828203905081811115611b6357611b62611b06565b5b92915050565b60008190508160005260206000209050919050565b60006020601f8301049050919050565b600082821b905092915050565b600060088302611bcb7fffffffffffffffffffffffffffffffffffffffffffffffffffffffffffffffff82611b8e565b611bd58683611b8e565b95508019841693508086168417925050509392505050565b6000819050919050565b6000611c12611c0d611c0884611204565b611bed565b611204565b9050919050565b6000819050919050565b611c2c83611bf7565b611c40611c3882611c19565b848454611b9b565b825550505050565b600090565b611c55611c48565b611c60818484611c23565b505050565b5b81811015611c8457611c79600082611c4d565b600181019050611c66565b5050565b601f821115611cc957611c9a81611b69565b611ca384611b7e565b81016020851015611cb2578190505b611cc6611cbe85611b7e565b830182611c65565b50505b505050565b600082821c905092915050565b6000611cec60001984600802611cce565b1980831691505092915050565b6000611d058383611cdb565b9150826002028217905092915050565b611d1e82611435565b67ffffffffffffffff811115611d3757611d366116b7565b5b611d41825461196f565b611d4c828285611c88565b600060209050601f831160018114611d7f5760008415611d6d578287015190505b611d778582611cf9565b865550611ddf565b601f198416611d8d86611b69565b60005b82811015611db557848901518255600182019150602085019450602081019050611d90565b86831015611dd25784890151611dce601f891682611cdb565b8355505b6001600288020188555050505b505050505050565b6000604082019050611dfc60008301856115c3565b611e0960208301846115c3565b9392505050565b600081519050611e1f8161120e565b92915050565b600060208284031215611e3b57611e3a6111fa565b5b6000611e4984828501611e10565b91505092915050565b7f4e6f7420656e6f75676820616c6c6f77616e6365000000000000000000000000600082015250565b6000611e886014836115ed565b9150611e9382611e52565b602082019050919050565b60006020820190508181036000830152611eb781611e7b565b9050919050565b6000606082019050611ed360008301866115c3565b611ee060208301856115c3565b611eed604083018461133a565b949350505050565b600060c082019050611f0a600083018961133a565b8181036020830152611f1c81886115fe565b9050611f2b604083018761133a565b611f38606083018661133a565b611f45608083018561133a565b611f5260a08301846115c3565b97965050505050505056fea264697066735822122004278fe6d61060a1c3a30fd8a4426ba512de8d92258605a1fd76ade2b123df3064736f6c63430008180033",
          "opcodes": "PUSH1 0x80 PUSH1 0x40 MSTORE CALLVALUE DUP1 ISZERO PUSH3 0x11 JUMPI PUSH1 0x0 DUP1 REVERT JUMPDEST POP PUSH1 0x40 MLOAD PUSH3 0x21F7 CODESIZE SUB DUP1 PUSH3 0x21F7 DUP4 CODECOPY DUP2 DUP2 ADD PUSH1 0x40 MSTORE DUP2 ADD SWAP1 PUSH3 0x37 SWAP2 SWAP1 PUSH3 0x1F4 JUMP JUMPDEST DUP1 PUSH1 0x0 PUSH20 0xFFFFFFFFFFFFFFFFFFFFFFFFFFFFFFFFFFFFFFFF AND DUP2 PUSH20 0xFFFFFFFFFFFFFFFFFFFFFFFFFFFFFFFFFFFFFFFF AND SUB PUSH3 0xAD JUMPI PUSH1 0x0 PUSH1 0x40 MLOAD PUSH32 0x1E4FBDF700000000000000000000000000000000000000000000000000000000 DUP2 MSTORE PUSH1 0x4 ADD PUSH3 0xA4 SWAP2 SWAP1 PUSH3 0x237 JUMP JUMPDEST PUSH1 0x40 MLOAD DUP1 SWAP2 SUB SWAP1 REVERT JUMPDEST PUSH3 0xBE DUP2 PUSH3 0xC6 PUSH1 0x20 SHL PUSH1 0x20 SHR JUMP JUMPDEST POP POP PUSH3 0x254 JUMP JUMPDEST PUSH1 0x0 DUP1 PUSH1 0x0 SWAP1 SLOAD SWAP1 PUSH2 0x100 EXP SWAP1 DIV PUSH20 0xFFFFFFFFFFFFFFFFFFFFFFFFFFFFFFFFFFFFFFFF AND SWAP1 POP DUP2 PUSH1 0x0 DUP1 PUSH2 0x100 EXP DUP2 SLOAD DUP2 PUSH20 0xFFFFFFFFFFFFFFFFFFFFFFFFFFFFFFFFFFFFFFFF MUL NOT AND SWAP1 DUP4 PUSH20 0xFFFFFFFFFFFFFFFFFFFFFFFFFFFFFFFFFFFFFFFF AND MUL OR SWAP1 SSTORE POP DUP2 PUSH20 0xFFFFFFFFFFFFFFFFFFFFFFFFFFFFFFFFFFFFFFFF AND DUP2 PUSH20 0xFFFFFFFFFFFFFFFFFFFFFFFFFFFFFFFFFFFFFFFF AND PUSH32 0x8BE0079C531659141344CD1FD0A4F28419497F9722A3DAAFE3B4186F6B6457E0 PUSH1 0x40 MLOAD PUSH1 0x40 MLOAD DUP1 SWAP2 SUB SWAP1 LOG3 POP POP JUMP JUMPDEST PUSH1 0x0 DUP1 REVERT JUMPDEST PUSH1 0x0 PUSH20 0xFFFFFFFFFFFFFFFFFFFFFFFFFFFFFFFFFFFFFFFF DUP3 AND SWAP1 POP SWAP2 SWAP1 POP JUMP JUMPDEST PUSH1 0x0 PUSH3 0x1BC DUP3 PUSH3 0x18F JUMP JUMPDEST SWAP1 POP SWAP2 SWAP1 POP JUMP JUMPDEST PUSH3 0x1CE DUP2 PUSH3 0x1AF JUMP JUMPDEST DUP2 EQ PUSH3 0x1DA JUMPI PUSH1 0x0 DUP1 REVERT JUMPDEST POP JUMP JUMPDEST PUSH1 0x0 DUP2 MLOAD SWAP1 POP PUSH3 0x1EE DUP2 PUSH3 0x1C3 JUMP JUMPDEST SWAP3 SWAP2 POP POP JUMP JUMPDEST PUSH1 0x0 PUSH1 0x20 DUP3 DUP5 SUB SLT ISZERO PUSH3 0x20D JUMPI PUSH3 0x20C PUSH3 0x18A JUMP JUMPDEST JUMPDEST PUSH1 0x0 PUSH3 0x21D DUP5 DUP3 DUP6 ADD PUSH3 0x1DD JUMP JUMPDEST SWAP2 POP POP SWAP3 SWAP2 POP POP JUMP JUMPDEST PUSH3 0x231 DUP2 PUSH3 0x1AF JUMP JUMPDEST DUP3 MSTORE POP POP JUMP JUMPDEST PUSH1 0x0 PUSH1 0x20 DUP3 ADD SWAP1 POP PUSH3 0x24E PUSH1 0x0 DUP4 ADD DUP5 PUSH3 0x226 JUMP JUMPDEST SWAP3 SWAP2 POP POP JUMP JUMPDEST PUSH2 0x1F93 DUP1 PUSH3 0x264 PUSH1 0x0 CODECOPY PUSH1 0x0 RETURN INVALID PUSH1 0x80 PUSH1 0x40 MSTORE CALLVALUE DUP1 ISZERO PUSH2 0x10 JUMPI PUSH1 0x0 DUP1 REVERT JUMPDEST POP PUSH1 0x4 CALLDATASIZE LT PUSH2 0xEA JUMPI PUSH1 0x0 CALLDATALOAD PUSH1 0xE0 SHR DUP1 PUSH4 0x8DA5CB5B GT PUSH2 0x8C JUMPI DUP1 PUSH4 0xAE169A50 GT PUSH2 0x66 JUMPI DUP1 PUSH4 0xAE169A50 EQ PUSH2 0x279 JUMPI DUP1 PUSH4 0xAFC4484F EQ PUSH2 0x295 JUMPI DUP1 PUSH4 0xF2FDE38B EQ PUSH2 0x2B1 JUMPI DUP1 PUSH4 0xF301AF42 EQ PUSH2 0x2CD JUMPI PUSH2 0xEA JUMP JUMPDEST DUP1 PUSH4 0x8DA5CB5B EQ PUSH2 0x207 JUMPI DUP1 PUSH4 0x92D63880 EQ PUSH2 0x225 JUMPI DUP1 PUSH4 0xA10340BC EQ PUSH2 0x243 JUMPI PUSH2 0xEA JUMP JUMPDEST DUP1 PUSH4 0x715018A6 GT PUSH2 0xC8 JUMPI DUP1 PUSH4 0x715018A6 EQ PUSH2 0x17F JUMPI DUP1 PUSH4 0x773D51EB EQ PUSH2 0x189 JUMPI DUP1 PUSH4 0x7921938B EQ PUSH2 0x1B9 JUMPI DUP1 PUSH4 0x7E7E8EEC EQ PUSH2 0x1E9 JUMPI PUSH2 0xEA JUMP JUMPDEST DUP1 PUSH4 0x1C4B774B EQ PUSH2 0xEF JUMPI DUP1 PUSH4 0x4A665127 EQ PUSH2 0x11F JUMPI DUP1 PUSH4 0x553705E9 EQ PUSH2 0x14F JUMPI JUMPDEST PUSH1 0x0 DUP1 REVERT JUMPDEST PUSH2 0x109 PUSH1 0x4 DUP1 CALLDATASIZE SUB DUP2 ADD SWAP1 PUSH2 0x104 SWAP2 SWAP1 PUSH2 0x123A JUMP JUMPDEST PUSH2 0x301 JUMP JUMPDEST PUSH1 0x40 MLOAD PUSH2 0x116 SWAP2 SWAP1 PUSH2 0x131F JUMP JUMPDEST PUSH1 0x40 MLOAD DUP1 SWAP2 SUB SWAP1 RETURN JUMPDEST PUSH2 0x139 PUSH1 0x4 DUP1 CALLDATASIZE SUB DUP2 ADD SWAP1 PUSH2 0x134 SWAP2 SWAP1 PUSH2 0x123A JUMP JUMPDEST PUSH2 0x3BB JUMP JUMPDEST PUSH1 0x40 MLOAD PUSH2 0x146 SWAP2 SWAP1 PUSH2 0x1349 JUMP JUMPDEST PUSH1 0x40 MLOAD DUP1 SWAP2 SUB SWAP1 RETURN JUMPDEST PUSH2 0x169 PUSH1 0x4 DUP1 CALLDATASIZE SUB DUP2 ADD SWAP1 PUSH2 0x164 SWAP2 SWAP1 PUSH2 0x123A JUMP JUMPDEST PUSH2 0x3DB JUMP JUMPDEST PUSH1 0x40 MLOAD PUSH2 0x176 SWAP2 SWAP1 PUSH2 0x1413 JUMP JUMPDEST PUSH1 0x40 MLOAD DUP1 SWAP2 SUB SWAP1 RETURN JUMPDEST PUSH2 0x187 PUSH2 0x446 JUMP JUMPDEST STOP JUMPDEST PUSH2 0x1A3 PUSH1 0x4 DUP1 CALLDATASIZE SUB DUP2 ADD SWAP1 PUSH2 0x19E SWAP2 SWAP1 PUSH2 0x123A JUMP JUMPDEST PUSH2 0x45A JUMP JUMPDEST PUSH1 0x40 MLOAD PUSH2 0x1B0 SWAP2 SWAP1 PUSH2 0x1561 JUMP JUMPDEST PUSH1 0x40 MLOAD DUP1 SWAP2 SUB SWAP1 RETURN JUMPDEST PUSH2 0x1D3 PUSH1 0x4 DUP1 CALLDATASIZE SUB DUP2 ADD SWAP1 PUSH2 0x1CE SWAP2 SWAP1 PUSH2 0x1583 JUMP JUMPDEST PUSH2 0x5FC JUMP JUMPDEST PUSH1 0x40 MLOAD PUSH2 0x1E0 SWAP2 SWAP1 PUSH2 0x1349 JUMP JUMPDEST PUSH1 0x40 MLOAD DUP1 SWAP2 SUB SWAP1 RETURN JUMPDEST PUSH2 0x1F1 PUSH2 0x62D JUMP JUMPDEST PUSH1 0x40 MLOAD PUSH2 0x1FE SWAP2 SWAP1 PUSH2 0x1349 JUMP JUMPDEST PUSH1 0x40 MLOAD DUP1 SWAP2 SUB SWAP1 RETURN JUMPDEST PUSH2 0x20F PUSH2 0x63A JUMP JUMPDEST PUSH1 0x40 MLOAD PUSH2 0x21C SWAP2 SWAP1 PUSH2 0x15D2 JUMP JUMPDEST PUSH1 0x40 MLOAD DUP1 SWAP2 SUB SWAP1 RETURN JUMPDEST PUSH2 0x22D PUSH2 0x663 JUMP JUMPDEST PUSH1 0x40 MLOAD PUSH2 0x23A SWAP2 SWAP1 PUSH2 0x1349 JUMP JUMPDEST PUSH1 0x40 MLOAD DUP1 SWAP2 SUB SWAP1 RETURN JUMPDEST PUSH2 0x25D PUSH1 0x4 DUP1 CALLDATASIZE SUB DUP2 ADD SWAP1 PUSH2 0x258 SWAP2 SWAP1 PUSH2 0x123A JUMP JUMPDEST PUSH2 0x670 JUMP JUMPDEST PUSH1 0x40 MLOAD PUSH2 0x270 SWAP8 SWAP7 SWAP6 SWAP5 SWAP4 SWAP3 SWAP2 SWAP1 PUSH2 0x1637 JUMP JUMPDEST PUSH1 0x40 MLOAD DUP1 SWAP2 SUB SWAP1 RETURN JUMPDEST PUSH2 0x293 PUSH1 0x4 DUP1 CALLDATASIZE SUB DUP2 ADD SWAP1 PUSH2 0x28E SWAP2 SWAP1 PUSH2 0x123A JUMP JUMPDEST PUSH2 0x78A JUMP JUMPDEST STOP JUMPDEST PUSH2 0x2AF PUSH1 0x4 DUP1 CALLDATASIZE SUB DUP2 ADD SWAP1 PUSH2 0x2AA SWAP2 SWAP1 PUSH2 0x180E JUMP JUMPDEST PUSH2 0xBFC JUMP JUMPDEST STOP JUMPDEST PUSH2 0x2CB PUSH1 0x4 DUP1 CALLDATASIZE SUB DUP2 ADD SWAP1 PUSH2 0x2C6 SWAP2 SWAP1 PUSH2 0x1891 JUMP JUMPDEST PUSH2 0xF03 JUMP JUMPDEST STOP JUMPDEST PUSH2 0x2E7 PUSH1 0x4 DUP1 CALLDATASIZE SUB DUP2 ADD SWAP1 PUSH2 0x2E2 SWAP2 SWAP1 PUSH2 0x123A JUMP JUMPDEST PUSH2 0xF89 JUMP JUMPDEST PUSH1 0x40 MLOAD PUSH2 0x2F8 SWAP6 SWAP5 SWAP4 SWAP3 SWAP2 SWAP1 PUSH2 0x18BE JUMP JUMPDEST PUSH1 0x40 MLOAD DUP1 SWAP2 SUB SWAP1 RETURN JUMPDEST PUSH2 0x309 PUSH2 0x1142 JUMP JUMPDEST PUSH1 0x2 DUP3 DUP2 SLOAD DUP2 LT PUSH2 0x31D JUMPI PUSH2 0x31C PUSH2 0x1911 JUMP JUMPDEST JUMPDEST SWAP1 PUSH1 0x0 MSTORE PUSH1 0x20 PUSH1 0x0 KECCAK256 SWAP1 PUSH1 0x5 MUL ADD PUSH1 0x40 MLOAD DUP1 PUSH1 0xA0 ADD PUSH1 0x40 MSTORE SWAP1 DUP2 PUSH1 0x0 DUP3 ADD SLOAD DUP2 MSTORE PUSH1 0x20 ADD PUSH1 0x1 DUP3 ADD SLOAD DUP2 MSTORE PUSH1 0x20 ADD PUSH1 0x2 DUP3 ADD PUSH1 0x0 SWAP1 SLOAD SWAP1 PUSH2 0x100 EXP SWAP1 DIV PUSH20 0xFFFFFFFFFFFFFFFFFFFFFFFFFFFFFFFFFFFFFFFF AND PUSH20 0xFFFFFFFFFFFFFFFFFFFFFFFFFFFFFFFFFFFFFFFF AND PUSH20 0xFFFFFFFFFFFFFFFFFFFFFFFFFFFFFFFFFFFFFFFF AND DUP2 MSTORE PUSH1 0x20 ADD PUSH1 0x3 DUP3 ADD SLOAD DUP2 MSTORE PUSH1 0x20 ADD PUSH1 0x4 DUP3 ADD SLOAD DUP2 MSTORE POP POP SWAP1 POP SWAP2 SWAP1 POP JUMP JUMPDEST PUSH1 0x0 PUSH1 0x3 PUSH1 0x0 DUP4 DUP2 MSTORE PUSH1 0x20 ADD SWAP1 DUP2 MSTORE PUSH1 0x20 ADD PUSH1 0x0 KECCAK256 DUP1 SLOAD SWAP1 POP SWAP1 POP SWAP2 SWAP1 POP JUMP JUMPDEST PUSH1 0x60 PUSH1 0x3 PUSH1 0x0 DUP4 DUP2 MSTORE PUSH1 0x20 ADD SWAP1 DUP2 MSTORE PUSH1 0x20 ADD PUSH1 0x0 KECCAK256 DUP1 SLOAD DUP1 PUSH1 0x20 MUL PUSH1 0x20 ADD PUSH1 0x40 MLOAD SWAP1 DUP2 ADD PUSH1 0x40 MSTORE DUP1 SWAP3 SWAP2 SWAP1 DUP2 DUP2 MSTORE PUSH1 0x20 ADD DUP3 DUP1 SLOAD DUP1 ISZERO PUSH2 0x43A JUMPI PUSH1 0x20 MUL DUP3 ADD SWAP2 SWAP1 PUSH1 0x0 MSTORE PUSH1 0x20 PUSH1 0x0 KECCAK256 SWAP1 JUMPDEST DUP2 SLOAD DUP2 MSTORE PUSH1 0x20 ADD SWAP1 PUSH1 0x1 ADD SWAP1 DUP1 DUP4 GT PUSH2 0x426 JUMPI JUMPDEST POP POP POP POP POP SWAP1 POP SWAP2 SWAP1 POP JUMP JUMPDEST PUSH2 0x44E PUSH2 0xFEF JUMP JUMPDEST PUSH2 0x458 PUSH1 0x0 PUSH2 0x1076 JUMP JUMPDEST JUMP JUMPDEST PUSH2 0x462 PUSH2 0x1187 JUMP JUMPDEST PUSH1 0x1 DUP3 DUP2 SLOAD DUP2 LT PUSH2 0x476 JUMPI PUSH2 0x475 PUSH2 0x1911 JUMP JUMPDEST JUMPDEST SWAP1 PUSH1 0x0 MSTORE PUSH1 0x20 PUSH1 0x0 KECCAK256 SWAP1 PUSH1 0x7 MUL ADD PUSH1 0x40 MLOAD DUP1 PUSH1 0xE0 ADD PUSH1 0x40 MSTORE SWAP1 DUP2 PUSH1 0x0 DUP3 ADD SLOAD DUP2 MSTORE PUSH1 0x20 ADD PUSH1 0x1 DUP3 ADD DUP1 SLOAD PUSH2 0x4A9 SWAP1 PUSH2 0x196F JUMP JUMPDEST DUP1 PUSH1 0x1F ADD PUSH1 0x20 DUP1 SWAP2 DIV MUL PUSH1 0x20 ADD PUSH1 0x40 MLOAD SWAP1 DUP2 ADD PUSH1 0x40 MSTORE DUP1 SWAP3 SWAP2 SWAP1 DUP2 DUP2 MSTORE PUSH1 0x20 ADD DUP3 DUP1 SLOAD PUSH2 0x4D5 SWAP1 PUSH2 0x196F JUMP JUMPDEST DUP1 ISZERO PUSH2 0x522 JUMPI DUP1 PUSH1 0x1F LT PUSH2 0x4F7 JUMPI PUSH2 0x100 DUP1 DUP4 SLOAD DIV MUL DUP4 MSTORE SWAP2 PUSH1 0x20 ADD SWAP2 PUSH2 0x522 JUMP JUMPDEST DUP3 ADD SWAP2 SWAP1 PUSH1 0x0 MSTORE PUSH1 0x20 PUSH1 0x0 KECCAK256 SWAP1 JUMPDEST DUP2 SLOAD DUP2 MSTORE SWAP1 PUSH1 0x1 ADD SWAP1 PUSH1 0x20 ADD DUP1 DUP4 GT PUSH2 0x505 JUMPI DUP3 SWAP1 SUB PUSH1 0x1F AND DUP3 ADD SWAP2 JUMPDEST POP POP POP POP POP DUP2 MSTORE PUSH1 0x20 ADD PUSH1 0x2 DUP3 ADD PUSH1 0x0 SWAP1 SLOAD SWAP1 PUSH2 0x100 EXP SWAP1 DIV PUSH20 0xFFFFFFFFFFFFFFFFFFFFFFFFFFFFFFFFFFFFFFFF AND PUSH20 0xFFFFFFFFFFFFFFFFFFFFFFFFFFFFFFFFFFFFFFFF AND PUSH20 0xFFFFFFFFFFFFFFFFFFFFFFFFFFFFFFFFFFFFFFFF AND DUP2 MSTORE PUSH1 0x20 ADD PUSH1 0x3 DUP3 ADD SLOAD DUP2 MSTORE PUSH1 0x20 ADD PUSH1 0x4 DUP3 ADD SLOAD DUP2 MSTORE PUSH1 0x20 ADD PUSH1 0x5 DUP3 ADD SLOAD DUP2 MSTORE PUSH1 0x20 ADD PUSH1 0x6 DUP3 ADD PUSH1 0x0 SWAP1 SLOAD SWAP1 PUSH2 0x100 EXP SWAP1 DIV PUSH20 0xFFFFFFFFFFFFFFFFFFFFFFFFFFFFFFFFFFFFFFFF AND PUSH20 0xFFFFFFFFFFFFFFFFFFFFFFFFFFFFFFFFFFFFFFFF AND PUSH20 0xFFFFFFFFFFFFFFFFFFFFFFFFFFFFFFFFFFFFFFFF AND DUP2 MSTORE POP POP SWAP1 POP SWAP2 SWAP1 POP JUMP JUMPDEST PUSH1 0x3 PUSH1 0x20 MSTORE DUP2 PUSH1 0x0 MSTORE PUSH1 0x40 PUSH1 0x0 KECCAK256 DUP2 DUP2 SLOAD DUP2 LT PUSH2 0x618 JUMPI PUSH1 0x0 DUP1 REVERT JUMPDEST SWAP1 PUSH1 0x0 MSTORE PUSH1 0x20 PUSH1 0x0 KECCAK256 ADD PUSH1 0x0 SWAP2 POP SWAP2 POP POP SLOAD DUP2 JUMP JUMPDEST PUSH1 0x0 PUSH1 0x2 DUP1 SLOAD SWAP1 POP SWAP1 POP SWAP1 JUMP JUMPDEST PUSH1 0x0 DUP1 PUSH1 0x0 SWAP1 SLOAD SWAP1 PUSH2 0x100 EXP SWAP1 DIV PUSH20 0xFFFFFFFFFFFFFFFFFFFFFFFFFFFFFFFFFFFFFFFF AND SWAP1 POP SWAP1 JUMP JUMPDEST PUSH1 0x0 PUSH1 0x1 DUP1 SLOAD SWAP1 POP SWAP1 POP SWAP1 JUMP JUMPDEST PUSH1 0x1 DUP2 DUP2 SLOAD DUP2 LT PUSH2 0x680 JUMPI PUSH1 0x0 DUP1 REVERT JUMPDEST SWAP1 PUSH1 0x0 MSTORE PUSH1 0x20 PUSH1 0x0 KECCAK256 SWAP1 PUSH1 0x7 MUL ADD PUSH1 0x0 SWAP2 POP SWAP1 POP DUP1 PUSH1 0x0 ADD SLOAD SWAP1 DUP1 PUSH1 0x1 ADD DUP1 SLOAD PUSH2 0x6A9 SWAP1 PUSH2 0x196F JUMP JUMPDEST DUP1 PUSH1 0x1F ADD PUSH1 0x20 DUP1 SWAP2 DIV MUL PUSH1 0x20 ADD PUSH1 0x40 MLOAD SWAP1 DUP2 ADD PUSH1 0x40 MSTORE DUP1 SWAP3 SWAP2 SWAP1 DUP2 DUP2 MSTORE PUSH1 0x20 ADD DUP3 DUP1 SLOAD PUSH2 0x6D5 SWAP1 PUSH2 0x196F JUMP JUMPDEST DUP1 ISZERO PUSH2 0x722 JUMPI DUP1 PUSH1 0x1F LT PUSH2 0x6F7 JUMPI PUSH2 0x100 DUP1 DUP4 SLOAD DIV MUL DUP4 MSTORE SWAP2 PUSH1 0x20 ADD SWAP2 PUSH2 0x722 JUMP JUMPDEST DUP3 ADD SWAP2 SWAP1 PUSH1 0x0 MSTORE PUSH1 0x20 PUSH1 0x0 KECCAK256 SWAP1 JUMPDEST DUP2 SLOAD DUP2 MSTORE SWAP1 PUSH1 0x1 ADD SWAP1 PUSH1 0x20 ADD DUP1 DUP4 GT PUSH2 0x705 JUMPI DUP3 SWAP1 SUB PUSH1 0x1F AND DUP3 ADD SWAP2 JUMPDEST POP POP POP POP POP SWAP1 DUP1 PUSH1 0x2 ADD PUSH1 0x0 SWAP1 SLOAD SWAP1 PUSH2 0x100 EXP SWAP1 DIV PUSH20 0xFFFFFFFFFFFFFFFFFFFFFFFFFFFFFFFFFFFFFFFF AND SWAP1 DUP1 PUSH1 0x3 ADD SLOAD SWAP1 DUP1 PUSH1 0x4 ADD SLOAD SWAP1 DUP1 PUSH1 0x5 ADD SLOAD SWAP1 DUP1 PUSH1 0x6 ADD PUSH1 0x0 SWAP1 SLOAD SWAP1 PUSH2 0x100 EXP SWAP1 DIV PUSH20 0xFFFFFFFFFFFFFFFFFFFFFFFFFFFFFFFFFFFFFFFF AND SWAP1 POP DUP8 JUMP JUMPDEST PUSH1 0x0 PUSH1 0x1 DUP3 DUP2 SLOAD DUP2 LT PUSH2 0x7A0 JUMPI PUSH2 0x79F PUSH2 0x1911 JUMP JUMPDEST JUMPDEST SWAP1 PUSH1 0x0 MSTORE PUSH1 0x20 PUSH1 0x0 KECCAK256 SWAP1 PUSH1 0x7 MUL ADD PUSH1 0x40 MLOAD DUP1 PUSH1 0xE0 ADD PUSH1 0x40 MSTORE SWAP1 DUP2 PUSH1 0x0 DUP3 ADD SLOAD DUP2 MSTORE PUSH1 0x20 ADD PUSH1 0x1 DUP3 ADD DUP1 SLOAD PUSH2 0x7D3 SWAP1 PUSH2 0x196F JUMP JUMPDEST DUP1 PUSH1 0x1F ADD PUSH1 0x20 DUP1 SWAP2 DIV MUL PUSH1 0x20 ADD PUSH1 0x40 MLOAD SWAP1 DUP2 ADD PUSH1 0x40 MSTORE DUP1 SWAP3 SWAP2 SWAP1 DUP2 DUP2 MSTORE PUSH1 0x20 ADD DUP3 DUP1 SLOAD PUSH2 0x7FF SWAP1 PUSH2 0x196F JUMP JUMPDEST DUP1 ISZERO PUSH2 0x84C JUMPI DUP1 PUSH1 0x1F LT PUSH2 0x821 JUMPI PUSH2 0x100 DUP1 DUP4 SLOAD DIV MUL DUP4 MSTORE SWAP2 PUSH1 0x20 ADD SWAP2 PUSH2 0x84C JUMP JUMPDEST DUP3 ADD SWAP2 SWAP1 PUSH1 0x0 MSTORE PUSH1 0x20 PUSH1 0x0 KECCAK256 SWAP1 JUMPDEST DUP2 SLOAD DUP2 MSTORE SWAP1 PUSH1 0x1 ADD SWAP1 PUSH1 0x20 ADD DUP1 DUP4 GT PUSH2 0x82F JUMPI DUP3 SWAP1 SUB PUSH1 0x1F AND DUP3 ADD SWAP2 JUMPDEST POP POP POP POP POP DUP2 MSTORE PUSH1 0x20 ADD PUSH1 0x2 DUP3 ADD PUSH1 0x0 SWAP1 SLOAD SWAP1 PUSH2 0x100 EXP SWAP1 DIV PUSH20 0xFFFFFFFFFFFFFFFFFFFFFFFFFFFFFFFFFFFFFFFF AND PUSH20 0xFFFFFFFFFFFFFFFFFFFFFFFFFFFFFFFFFFFFFFFF AND PUSH20 0xFFFFFFFFFFFFFFFFFFFFFFFFFFFFFFFFFFFFFFFF AND DUP2 MSTORE PUSH1 0x20 ADD PUSH1 0x3 DUP3 ADD SLOAD DUP2 MSTORE PUSH1 0x20 ADD PUSH1 0x4 DUP3 ADD SLOAD DUP2 MSTORE PUSH1 0x20 ADD PUSH1 0x5 DUP3 ADD SLOAD DUP2 MSTORE PUSH1 0x20 ADD PUSH1 0x6 DUP3 ADD PUSH1 0x0 SWAP1 SLOAD SWAP1 PUSH2 0x100 EXP SWAP1 DIV PUSH20 0xFFFFFFFFFFFFFFFFFFFFFFFFFFFFFFFFFFFFFFFF AND PUSH20 0xFFFFFFFFFFFFFFFFFFFFFFFFFFFFFFFFFFFFFFFF AND PUSH20 0xFFFFFFFFFFFFFFFFFFFFFFFFFFFFFFFFFFFFFFFF AND DUP2 MSTORE POP POP SWAP1 POP PUSH1 0x0 DUP2 PUSH1 0x60 ADD MLOAD GT PUSH2 0x968 JUMPI PUSH1 0x40 MLOAD PUSH32 0x8C379A000000000000000000000000000000000000000000000000000000000 DUP2 MSTORE PUSH1 0x4 ADD PUSH2 0x95F SWAP1 PUSH2 0x19EC JUMP JUMPDEST PUSH1 0x40 MLOAD DUP1 SWAP2 SUB SWAP1 REVERT JUMPDEST DUP1 PUSH1 0x80 ADD MLOAD DUP2 PUSH1 0x60 ADD MLOAD GT PUSH2 0x9B2 JUMPI PUSH1 0x40 MLOAD PUSH32 0x8C379A000000000000000000000000000000000000000000000000000000000 DUP2 MSTORE PUSH1 0x4 ADD PUSH2 0x9A9 SWAP1 PUSH2 0x1A58 JUMP JUMPDEST PUSH1 0x40 MLOAD DUP1 SWAP2 SUB SWAP1 REVERT JUMPDEST PUSH1 0x0 PUSH1 0x40 MLOAD DUP1 PUSH1 0xA0 ADD PUSH1 0x40 MSTORE DUP1 PUSH1 0x2 DUP1 SLOAD SWAP1 POP DUP2 MSTORE PUSH1 0x20 ADD DUP5 DUP2 MSTORE PUSH1 0x20 ADD CALLER PUSH20 0xFFFFFFFFFFFFFFFFFFFFFFFFFFFFFFFFFFFFFFFF AND DUP2 MSTORE PUSH1 0x20 ADD DUP4 PUSH1 0x80 ADD MLOAD DUP2 MSTORE PUSH1 0x20 ADD TIMESTAMP DUP2 MSTORE POP SWAP1 POP PUSH1 0x2 DUP2 SWAP1 DUP1 PUSH1 0x1 DUP2 SLOAD ADD DUP1 DUP3 SSTORE DUP1 SWAP2 POP POP PUSH1 0x1 SWAP1 SUB SWAP1 PUSH1 0x0 MSTORE PUSH1 0x20 PUSH1 0x0 KECCAK256 SWAP1 PUSH1 0x5 MUL ADD PUSH1 0x0 SWAP1 SWAP2 SWAP1 SWAP2 SWAP1 SWAP2 POP PUSH1 0x0 DUP3 ADD MLOAD DUP2 PUSH1 0x0 ADD SSTORE PUSH1 0x20 DUP3 ADD MLOAD DUP2 PUSH1 0x1 ADD SSTORE PUSH1 0x40 DUP3 ADD MLOAD DUP2 PUSH1 0x2 ADD PUSH1 0x0 PUSH2 0x100 EXP DUP2 SLOAD DUP2 PUSH20 0xFFFFFFFFFFFFFFFFFFFFFFFFFFFFFFFFFFFFFFFF MUL NOT AND SWAP1 DUP4 PUSH20 0xFFFFFFFFFFFFFFFFFFFFFFFFFFFFFFFFFFFFFFFF AND MUL OR SWAP1 SSTORE POP PUSH1 0x60 DUP3 ADD MLOAD DUP2 PUSH1 0x3 ADD SSTORE PUSH1 0x80 DUP3 ADD MLOAD DUP2 PUSH1 0x4 ADD SSTORE POP POP PUSH1 0x3 PUSH1 0x0 DUP5 DUP2 MSTORE PUSH1 0x20 ADD SWAP1 DUP2 MSTORE PUSH1 0x20 ADD PUSH1 0x0 KECCAK256 DUP2 PUSH1 0x0 ADD MLOAD SWAP1 DUP1 PUSH1 0x1 DUP2 SLOAD ADD DUP1 DUP3 SSTORE DUP1 SWAP2 POP POP PUSH1 0x1 SWAP1 SUB SWAP1 PUSH1 0x0 MSTORE PUSH1 0x20 PUSH1 0x0 KECCAK256 ADD PUSH1 0x0 SWAP1 SWAP2 SWAP1 SWAP2 SWAP1 SWAP2 POP SSTORE PUSH1 0x0 DUP3 PUSH1 0x40 ADD MLOAD SWAP1 POP DUP1 PUSH20 0xFFFFFFFFFFFFFFFFFFFFFFFFFFFFFFFFFFFFFFFF AND PUSH4 0xA9059CBB CALLER DUP6 PUSH1 0x80 ADD MLOAD PUSH1 0x40 MLOAD DUP4 PUSH4 0xFFFFFFFF AND PUSH1 0xE0 SHL DUP2 MSTORE PUSH1 0x4 ADD PUSH2 0xB1F SWAP3 SWAP2 SWAP1 PUSH2 0x1A78 JUMP JUMPDEST PUSH1 0x20 PUSH1 0x40 MLOAD DUP1 DUP4 SUB DUP2 PUSH1 0x0 DUP8 GAS CALL ISZERO DUP1 ISZERO PUSH2 0xB3E JUMPI RETURNDATASIZE PUSH1 0x0 DUP1 RETURNDATACOPY RETURNDATASIZE PUSH1 0x0 REVERT JUMPDEST POP POP POP POP PUSH1 0x40 MLOAD RETURNDATASIZE PUSH1 0x1F NOT PUSH1 0x1F DUP3 ADD AND DUP3 ADD DUP1 PUSH1 0x40 MSTORE POP DUP2 ADD SWAP1 PUSH2 0xB62 SWAP2 SWAP1 PUSH2 0x1AD9 JUMP JUMPDEST POP DUP3 PUSH1 0x80 ADD MLOAD PUSH1 0x1 DUP6 DUP2 SLOAD DUP2 LT PUSH2 0xB7C JUMPI PUSH2 0xB7B PUSH2 0x1911 JUMP JUMPDEST JUMPDEST SWAP1 PUSH1 0x0 MSTORE PUSH1 0x20 PUSH1 0x0 KECCAK256 SWAP1 PUSH1 0x7 MUL ADD PUSH1 0x3 ADD PUSH1 0x0 DUP3 DUP3 SLOAD PUSH2 0xB9C SWAP2 SWAP1 PUSH2 0x1B35 JUMP JUMPDEST SWAP3 POP POP DUP2 SWAP1 SSTORE POP PUSH32 0x7EF1954A47BCF45F29BBC3B53D86DF999B6F295782796AC65EA2DF0347116935 DUP3 PUSH1 0x0 ADD MLOAD DUP4 PUSH1 0x20 ADD MLOAD DUP5 PUSH1 0x40 ADD MLOAD DUP6 PUSH1 0x60 ADD MLOAD DUP7 PUSH1 0x80 ADD MLOAD PUSH1 0x40 MLOAD PUSH2 0xBEE SWAP6 SWAP5 SWAP4 SWAP3 SWAP2 SWAP1 PUSH2 0x18BE JUMP JUMPDEST PUSH1 0x40 MLOAD DUP1 SWAP2 SUB SWAP1 LOG1 POP POP POP POP JUMP JUMPDEST PUSH1 0x0 PUSH1 0x40 MLOAD DUP1 PUSH1 0xE0 ADD PUSH1 0x40 MSTORE DUP1 PUSH1 0x1 DUP1 SLOAD SWAP1 POP DUP2 MSTORE PUSH1 0x20 ADD DUP7 DUP2 MSTORE PUSH1 0x20 ADD DUP4 PUSH20 0xFFFFFFFFFFFFFFFFFFFFFFFFFFFFFFFFFFFFFFFF AND DUP2 MSTORE PUSH1 0x20 ADD DUP6 DUP2 MSTORE PUSH1 0x20 ADD DUP5 DUP2 MSTORE PUSH1 0x20 ADD TIMESTAMP DUP2 MSTORE PUSH1 0x20 ADD CALLER PUSH20 0xFFFFFFFFFFFFFFFFFFFFFFFFFFFFFFFFFFFFFFFF AND DUP2 MSTORE POP SWAP1 POP PUSH1 0x1 DUP2 SWAP1 DUP1 PUSH1 0x1 DUP2 SLOAD ADD DUP1 DUP3 SSTORE DUP1 SWAP2 POP POP PUSH1 0x1 SWAP1 SUB SWAP1 PUSH1 0x0 MSTORE PUSH1 0x20 PUSH1 0x0 KECCAK256 SWAP1 PUSH1 0x7 MUL ADD PUSH1 0x0 SWAP1 SWAP2 SWAP1 SWAP2 SWAP1 SWAP2 POP PUSH1 0x0 DUP3 ADD MLOAD DUP2 PUSH1 0x0 ADD SSTORE PUSH1 0x20 DUP3 ADD MLOAD DUP2 PUSH1 0x1 ADD SWAP1 DUP2 PUSH2 0xCAF SWAP2 SWAP1 PUSH2 0x1D15 JUMP JUMPDEST POP PUSH1 0x40 DUP3 ADD MLOAD DUP2 PUSH1 0x2 ADD PUSH1 0x0 PUSH2 0x100 EXP DUP2 SLOAD DUP2 PUSH20 0xFFFFFFFFFFFFFFFFFFFFFFFFFFFFFFFFFFFFFFFF MUL NOT AND SWAP1 DUP4 PUSH20 0xFFFFFFFFFFFFFFFFFFFFFFFFFFFFFFFFFFFFFFFF AND MUL OR SWAP1 SSTORE POP PUSH1 0x60 DUP3 ADD MLOAD DUP2 PUSH1 0x3 ADD SSTORE PUSH1 0x80 DUP3 ADD MLOAD DUP2 PUSH1 0x4 ADD SSTORE PUSH1 0xA0 DUP3 ADD MLOAD DUP2 PUSH1 0x5 ADD SSTORE PUSH1 0xC0 DUP3 ADD MLOAD DUP2 PUSH1 0x6 ADD PUSH1 0x0 PUSH2 0x100 EXP DUP2 SLOAD DUP2 PUSH20 0xFFFFFFFFFFFFFFFFFFFFFFFFFFFFFFFFFFFFFFFF MUL NOT AND SWAP1 DUP4 PUSH20 0xFFFFFFFFFFFFFFFFFFFFFFFFFFFFFFFFFFFFFFFF AND MUL OR SWAP1 SSTORE POP POP POP PUSH1 0x0 DUP3 SWAP1 POP DUP5 DUP2 PUSH20 0xFFFFFFFFFFFFFFFFFFFFFFFFFFFFFFFFFFFFFFFF AND PUSH4 0xDD62ED3E CALLER ADDRESS PUSH1 0x40 MLOAD DUP4 PUSH4 0xFFFFFFFF AND PUSH1 0xE0 SHL DUP2 MSTORE PUSH1 0x4 ADD PUSH2 0xD9F SWAP3 SWAP2 SWAP1 PUSH2 0x1DE7 JUMP JUMPDEST PUSH1 0x20 PUSH1 0x40 MLOAD DUP1 DUP4 SUB DUP2 DUP7 GAS STATICCALL ISZERO DUP1 ISZERO PUSH2 0xDBC JUMPI RETURNDATASIZE PUSH1 0x0 DUP1 RETURNDATACOPY RETURNDATASIZE PUSH1 0x0 REVERT JUMPDEST POP POP POP POP PUSH1 0x40 MLOAD RETURNDATASIZE PUSH1 0x1F NOT PUSH1 0x1F DUP3 ADD AND DUP3 ADD DUP1 PUSH1 0x40 MSTORE POP DUP2 ADD SWAP1 PUSH2 0xDE0 SWAP2 SWAP1 PUSH2 0x1E25 JUMP JUMPDEST LT ISZERO PUSH2 0xE21 JUMPI PUSH1 0x40 MLOAD PUSH32 0x8C379A000000000000000000000000000000000000000000000000000000000 DUP2 MSTORE PUSH1 0x4 ADD PUSH2 0xE18 SWAP1 PUSH2 0x1E9E JUMP JUMPDEST PUSH1 0x40 MLOAD DUP1 SWAP2 SUB SWAP1 REVERT JUMPDEST DUP1 PUSH20 0xFFFFFFFFFFFFFFFFFFFFFFFFFFFFFFFFFFFFFFFF AND PUSH4 0x23B872DD CALLER ADDRESS DUP9 PUSH1 0x40 MLOAD DUP5 PUSH4 0xFFFFFFFF AND PUSH1 0xE0 SHL DUP2 MSTORE PUSH1 0x4 ADD PUSH2 0xE5E SWAP4 SWAP3 SWAP2 SWAP1 PUSH2 0x1EBE JUMP JUMPDEST PUSH1 0x20 PUSH1 0x40 MLOAD DUP1 DUP4 SUB DUP2 PUSH1 0x0 DUP8 GAS CALL ISZERO DUP1 ISZERO PUSH2 0xE7D JUMPI RETURNDATASIZE PUSH1 0x0 DUP1 RETURNDATACOPY RETURNDATASIZE PUSH1 0x0 REVERT JUMPDEST POP POP POP POP PUSH1 0x40 MLOAD RETURNDATASIZE PUSH1 0x1F NOT PUSH1 0x1F DUP3 ADD AND DUP3 ADD DUP1 PUSH1 0x40 MSTORE POP DUP2 ADD SWAP1 PUSH2 0xEA1 SWAP2 SWAP1 PUSH2 0x1AD9 JUMP JUMPDEST POP PUSH32 0x9AA40E0901C973EF98AF9F088F6C6E4798CCC9CEBF4F4CEC10810A672D1B48F4 DUP3 PUSH1 0x0 ADD MLOAD DUP4 PUSH1 0x20 ADD MLOAD DUP5 PUSH1 0x60 ADD MLOAD DUP6 PUSH1 0x80 ADD MLOAD DUP7 PUSH1 0xA0 ADD MLOAD DUP8 PUSH1 0xC0 ADD MLOAD PUSH1 0x40 MLOAD PUSH2 0xEF3 SWAP7 SWAP6 SWAP5 SWAP4 SWAP3 SWAP2 SWAP1 PUSH2 0x1EF5 JUMP JUMPDEST PUSH1 0x40 MLOAD DUP1 SWAP2 SUB SWAP1 LOG1 POP POP POP POP POP POP JUMP JUMPDEST PUSH2 0xF0B PUSH2 0xFEF JUMP JUMPDEST PUSH1 0x0 PUSH20 0xFFFFFFFFFFFFFFFFFFFFFFFFFFFFFFFFFFFFFFFF AND DUP2 PUSH20 0xFFFFFFFFFFFFFFFFFFFFFFFFFFFFFFFFFFFFFFFF AND SUB PUSH2 0xF7D JUMPI PUSH1 0x0 PUSH1 0x40 MLOAD PUSH32 0x1E4FBDF700000000000000000000000000000000000000000000000000000000 DUP2 MSTORE PUSH1 0x4 ADD PUSH2 0xF74 SWAP2 SWAP1 PUSH2 0x15D2 JUMP JUMPDEST PUSH1 0x40 MLOAD DUP1 SWAP2 SUB SWAP1 REVERT JUMPDEST PUSH2 0xF86 DUP2 PUSH2 0x1076 JUMP JUMPDEST POP JUMP JUMPDEST PUSH1 0x2 DUP2 DUP2 SLOAD DUP2 LT PUSH2 0xF99 JUMPI PUSH1 0x0 DUP1 REVERT JUMPDEST SWAP1 PUSH1 0x0 MSTORE PUSH1 0x20 PUSH1 0x0 KECCAK256 SWAP1 PUSH1 0x5 MUL ADD PUSH1 0x0 SWAP2 POP SWAP1 POP DUP1 PUSH1 0x0 ADD SLOAD SWAP1 DUP1 PUSH1 0x1 ADD SLOAD SWAP1 DUP1 PUSH1 0x2 ADD PUSH1 0x0 SWAP1 SLOAD SWAP1 PUSH2 0x100 EXP SWAP1 DIV PUSH20 0xFFFFFFFFFFFFFFFFFFFFFFFFFFFFFFFFFFFFFFFF AND SWAP1 DUP1 PUSH1 0x3 ADD SLOAD SWAP1 DUP1 PUSH1 0x4 ADD SLOAD SWAP1 POP DUP6 JUMP JUMPDEST PUSH2 0xFF7 PUSH2 0x113A JUMP JUMPDEST PUSH20 0xFFFFFFFFFFFFFFFFFFFFFFFFFFFFFFFFFFFFFFFF AND PUSH2 0x1015 PUSH2 0x63A JUMP JUMPDEST PUSH20 0xFFFFFFFFFFFFFFFFFFFFFFFFFFFFFFFFFFFFFFFF AND EQ PUSH2 0x1074 JUMPI PUSH2 0x1038 PUSH2 0x113A JUMP JUMPDEST PUSH1 0x40 MLOAD PUSH32 0x118CDAA700000000000000000000000000000000000000000000000000000000 DUP2 MSTORE PUSH1 0x4 ADD PUSH2 0x106B SWAP2 SWAP1 PUSH2 0x15D2 JUMP JUMPDEST PUSH1 0x40 MLOAD DUP1 SWAP2 SUB SWAP1 REVERT JUMPDEST JUMP JUMPDEST PUSH1 0x0 DUP1 PUSH1 0x0 SWAP1 SLOAD SWAP1 PUSH2 0x100 EXP SWAP1 DIV PUSH20 0xFFFFFFFFFFFFFFFFFFFFFFFFFFFFFFFFFFFFFFFF AND SWAP1 POP DUP2 PUSH1 0x0 DUP1 PUSH2 0x100 EXP DUP2 SLOAD DUP2 PUSH20 0xFFFFFFFFFFFFFFFFFFFFFFFFFFFFFFFFFFFFFFFF MUL NOT AND SWAP1 DUP4 PUSH20 0xFFFFFFFFFFFFFFFFFFFFFFFFFFFFFFFFFFFFFFFF AND MUL OR SWAP1 SSTORE POP DUP2 PUSH20 0xFFFFFFFFFFFFFFFFFFFFFFFFFFFFFFFFFFFFFFFF AND DUP2 PUSH20 0xFFFFFFFFFFFFFFFFFFFFFFFFFFFFFFFFFFFFFFFF AND PUSH32 0x8BE0079C531659141344CD1FD0A4F28419497F9722A3DAAFE3B4186F6B6457E0 PUSH1 0x40 MLOAD PUSH1 0x40 MLOAD DUP1 SWAP2 SUB SWAP1 LOG3 POP POP JUMP JUMPDEST PUSH1 0x0 CALLER SWAP1 POP SWAP1 JUMP JUMPDEST PUSH1 0x40 MLOAD DUP1 PUSH1 0xA0 ADD PUSH1 0x40 MSTORE DUP1 PUSH1 0x0 DUP2 MSTORE PUSH1 0x20 ADD PUSH1 0x0 DUP2 MSTORE PUSH1 0x20 ADD PUSH1 0x0 PUSH20 0xFFFFFFFFFFFFFFFFFFFFFFFFFFFFFFFFFFFFFFFF AND DUP2 MSTORE PUSH1 0x20 ADD PUSH1 0x0 DUP2 MSTORE PUSH1 0x20 ADD PUSH1 0x0 DUP2 MSTORE POP SWAP1 JUMP JUMPDEST PUSH1 0x40 MLOAD DUP1 PUSH1 0xE0 ADD PUSH1 0x40 MSTORE DUP1 PUSH1 0x0 DUP2 MSTORE PUSH1 0x20 ADD PUSH1 0x60 DUP2 MSTORE PUSH1 0x20 ADD PUSH1 0x0 PUSH20 0xFFFFFFFFFFFFFFFFFFFFFFFFFFFFFFFFFFFFFFFF AND DUP2 MSTORE PUSH1 0x20 ADD PUSH1 0x0 DUP2 MSTORE PUSH1 0x20 ADD PUSH1 0x0 DUP2 MSTORE PUSH1 0x20 ADD PUSH1 0x0 DUP2 MSTORE PUSH1 0x20 ADD PUSH1 0x0 PUSH20 0xFFFFFFFFFFFFFFFFFFFFFFFFFFFFFFFFFFFFFFFF AND DUP2 MSTORE POP SWAP1 JUMP JUMPDEST PUSH1 0x0 PUSH1 0x40 MLOAD SWAP1 POP SWAP1 JUMP JUMPDEST PUSH1 0x0 DUP1 REVERT JUMPDEST PUSH1 0x0 DUP1 REVERT JUMPDEST PUSH1 0x0 DUP2 SWAP1 POP SWAP2 SWAP1 POP JUMP JUMPDEST PUSH2 0x1217 DUP2 PUSH2 0x1204 JUMP JUMPDEST DUP2 EQ PUSH2 0x1222 JUMPI PUSH1 0x0 DUP1 REVERT JUMPDEST POP JUMP JUMPDEST PUSH1 0x0 DUP2 CALLDATALOAD SWAP1 POP PUSH2 0x1234 DUP2 PUSH2 0x120E JUMP JUMPDEST SWAP3 SWAP2 POP POP JUMP JUMPDEST PUSH1 0x0 PUSH1 0x20 DUP3 DUP5 SUB SLT ISZERO PUSH2 0x1250 JUMPI PUSH2 0x124F PUSH2 0x11FA JUMP JUMPDEST JUMPDEST PUSH1 0x0 PUSH2 0x125E DUP5 DUP3 DUP6 ADD PUSH2 0x1225 JUMP JUMPDEST SWAP2 POP POP SWAP3 SWAP2 POP POP JUMP JUMPDEST PUSH2 0x1270 DUP2 PUSH2 0x1204 JUMP JUMPDEST DUP3 MSTORE POP POP JUMP JUMPDEST PUSH1 0x0 PUSH20 0xFFFFFFFFFFFFFFFFFFFFFFFFFFFFFFFFFFFFFFFF DUP3 AND SWAP1 POP SWAP2 SWAP1 POP JUMP JUMPDEST PUSH1 0x0 PUSH2 0x12A1 DUP3 PUSH2 0x1276 JUMP JUMPDEST SWAP1 POP SWAP2 SWAP1 POP JUMP JUMPDEST PUSH2 0x12B1 DUP2 PUSH2 0x1296 JUMP JUMPDEST DUP3 MSTORE POP POP JUMP JUMPDEST PUSH1 0xA0 DUP3 ADD PUSH1 0x0 DUP3 ADD MLOAD PUSH2 0x12CD PUSH1 0x0 DUP6 ADD DUP3 PUSH2 0x1267 JUMP JUMPDEST POP PUSH1 0x20 DUP3 ADD MLOAD PUSH2 0x12E0 PUSH1 0x20 DUP6 ADD DUP3 PUSH2 0x1267 JUMP JUMPDEST POP PUSH1 0x40 DUP3 ADD MLOAD PUSH2 0x12F3 PUSH1 0x40 DUP6 ADD DUP3 PUSH2 0x12A8 JUMP JUMPDEST POP PUSH1 0x60 DUP3 ADD MLOAD PUSH2 0x1306 PUSH1 0x60 DUP6 ADD DUP3 PUSH2 0x1267 JUMP JUMPDEST POP PUSH1 0x80 DUP3 ADD MLOAD PUSH2 0x1319 PUSH1 0x80 DUP6 ADD DUP3 PUSH2 0x1267 JUMP JUMPDEST POP POP POP POP JUMP JUMPDEST PUSH1 0x0 PUSH1 0xA0 DUP3 ADD SWAP1 POP PUSH2 0x1334 PUSH1 0x0 DUP4 ADD DUP5 PUSH2 0x12B7 JUMP JUMPDEST SWAP3 SWAP2 POP POP JUMP JUMPDEST PUSH2 0x1343 DUP2 PUSH2 0x1204 JUMP JUMPDEST DUP3 MSTORE POP POP JUMP JUMPDEST PUSH1 0x0 PUSH1 0x20 DUP3 ADD SWAP1 POP PUSH2 0x135E PUSH1 0x0 DUP4 ADD DUP5 PUSH2 0x133A JUMP JUMPDEST SWAP3 SWAP2 POP POP JUMP JUMPDEST PUSH1 0x0 DUP2 MLOAD SWAP1 POP SWAP2 SWAP1 POP JUMP JUMPDEST PUSH1 0x0 DUP3 DUP3 MSTORE PUSH1 0x20 DUP3 ADD SWAP1 POP SWAP3 SWAP2 POP POP JUMP JUMPDEST PUSH1 0x0 DUP2 SWAP1 POP PUSH1 0x20 DUP3 ADD SWAP1 POP SWAP2 SWAP1 POP JUMP JUMPDEST PUSH1 0x0 PUSH2 0x139C DUP4 DUP4 PUSH2 0x1267 JUMP JUMPDEST PUSH1 0x20 DUP4 ADD SWAP1 POP SWAP3 SWAP2 POP POP JUMP JUMPDEST PUSH1 0x0 PUSH1 0x20 DUP3 ADD SWAP1 POP SWAP2 SWAP1 POP JUMP JUMPDEST PUSH1 0x0 PUSH2 0x13C0 DUP3 PUSH2 0x1364 JUMP JUMPDEST PUSH2 0x13CA DUP2 DUP6 PUSH2 0x136F JUMP JUMPDEST SWAP4 POP PUSH2 0x13D5 DUP4 PUSH2 0x1380 JUMP JUMPDEST DUP1 PUSH1 0x0 JUMPDEST DUP4 DUP2 LT ISZERO PUSH2 0x1406 JUMPI DUP2 MLOAD PUSH2 0x13ED DUP9 DUP3 PUSH2 0x1390 JUMP JUMPDEST SWAP8 POP PUSH2 0x13F8 DUP4 PUSH2 0x13A8 JUMP JUMPDEST SWAP3 POP POP PUSH1 0x1 DUP2 ADD SWAP1 POP PUSH2 0x13D9 JUMP JUMPDEST POP DUP6 SWAP4 POP POP POP POP SWAP3 SWAP2 POP POP JUMP JUMPDEST PUSH1 0x0 PUSH1 0x20 DUP3 ADD SWAP1 POP DUP2 DUP2 SUB PUSH1 0x0 DUP4 ADD MSTORE PUSH2 0x142D DUP2 DUP5 PUSH2 0x13B5 JUMP JUMPDEST SWAP1 POP SWAP3 SWAP2 POP POP JUMP JUMPDEST PUSH1 0x0 DUP2 MLOAD SWAP1 POP SWAP2 SWAP1 POP JUMP JUMPDEST PUSH1 0x0 DUP3 DUP3 MSTORE PUSH1 0x20 DUP3 ADD SWAP1 POP SWAP3 SWAP2 POP POP JUMP JUMPDEST PUSH1 0x0 JUMPDEST DUP4 DUP2 LT ISZERO PUSH2 0x146F JUMPI DUP1 DUP3 ADD MLOAD DUP2 DUP5 ADD MSTORE PUSH1 0x20 DUP2 ADD SWAP1 POP PUSH2 0x1454 JUMP JUMPDEST PUSH1 0x0 DUP5 DUP5 ADD MSTORE POP POP POP POP JUMP JUMPDEST PUSH1 0x0 PUSH1 0x1F NOT PUSH1 0x1F DUP4 ADD AND SWAP1 POP SWAP2 SWAP1 POP JUMP JUMPDEST PUSH1 0x0 PUSH2 0x1497 DUP3 PUSH2 0x1435 JUMP JUMPDEST PUSH2 0x14A1 DUP2 DUP6 PUSH2 0x1440 JUMP JUMPDEST SWAP4 POP PUSH2 0x14B1 DUP2 DUP6 PUSH1 0x20 DUP7 ADD PUSH2 0x1451 JUMP JUMPDEST PUSH2 0x14BA DUP2 PUSH2 0x147B JUMP JUMPDEST DUP5 ADD SWAP2 POP POP SWAP3 SWAP2 POP POP JUMP JUMPDEST PUSH1 0x0 PUSH1 0xE0 DUP4 ADD PUSH1 0x0 DUP4 ADD MLOAD PUSH2 0x14DD PUSH1 0x0 DUP7 ADD DUP3 PUSH2 0x1267 JUMP JUMPDEST POP PUSH1 0x20 DUP4 ADD MLOAD DUP5 DUP3 SUB PUSH1 0x20 DUP7 ADD MSTORE PUSH2 0x14F5 DUP3 DUP3 PUSH2 0x148C JUMP JUMPDEST SWAP2 POP POP PUSH1 0x40 DUP4 ADD MLOAD PUSH2 0x150A PUSH1 0x40 DUP7 ADD DUP3 PUSH2 0x12A8 JUMP JUMPDEST POP PUSH1 0x60 DUP4 ADD MLOAD PUSH2 0x151D PUSH1 0x60 DUP7 ADD DUP3 PUSH2 0x1267 JUMP JUMPDEST POP PUSH1 0x80 DUP4 ADD MLOAD PUSH2 0x1530 PUSH1 0x80 DUP7 ADD DUP3 PUSH2 0x1267 JUMP JUMPDEST POP PUSH1 0xA0 DUP4 ADD MLOAD PUSH2 0x1543 PUSH1 0xA0 DUP7 ADD DUP3 PUSH2 0x1267 JUMP JUMPDEST POP PUSH1 0xC0 DUP4 ADD MLOAD PUSH2 0x1556 PUSH1 0xC0 DUP7 ADD DUP3 PUSH2 0x12A8 JUMP JUMPDEST POP DUP1 SWAP2 POP POP SWAP3 SWAP2 POP POP JUMP JUMPDEST PUSH1 0x0 PUSH1 0x20 DUP3 ADD SWAP1 POP DUP2 DUP2 SUB PUSH1 0x0 DUP4 ADD MSTORE PUSH2 0x157B DUP2 DUP5 PUSH2 0x14C5 JUMP JUMPDEST SWAP1 POP SWAP3 SWAP2 POP POP JUMP JUMPDEST PUSH1 0x0 DUP1 PUSH1 0x40 DUP4 DUP6 SUB SLT ISZERO PUSH2 0x159A JUMPI PUSH2 0x1599 PUSH2 0x11FA JUMP JUMPDEST JUMPDEST PUSH1 0x0 PUSH2 0x15A8 DUP6 DUP3 DUP7 ADD PUSH2 0x1225 JUMP JUMPDEST SWAP3 POP POP PUSH1 0x20 PUSH2 0x15B9 DUP6 DUP3 DUP7 ADD PUSH2 0x1225 JUMP JUMPDEST SWAP2 POP POP SWAP3 POP SWAP3 SWAP1 POP JUMP JUMPDEST PUSH2 0x15CC DUP2 PUSH2 0x1296 JUMP JUMPDEST DUP3 MSTORE POP POP JUMP JUMPDEST PUSH1 0x0 PUSH1 0x20 DUP3 ADD SWAP1 POP PUSH2 0x15E7 PUSH1 0x0 DUP4 ADD DUP5 PUSH2 0x15C3 JUMP JUMPDEST SWAP3 SWAP2 POP POP JUMP JUMPDEST PUSH1 0x0 DUP3 DUP3 MSTORE PUSH1 0x20 DUP3 ADD SWAP1 POP SWAP3 SWAP2 POP POP JUMP JUMPDEST PUSH1 0x0 PUSH2 0x1609 DUP3 PUSH2 0x1435 JUMP JUMPDEST PUSH2 0x1613 DUP2 DUP6 PUSH2 0x15ED JUMP JUMPDEST SWAP4 POP PUSH2 0x1623 DUP2 DUP6 PUSH1 0x20 DUP7 ADD PUSH2 0x1451 JUMP JUMPDEST PUSH2 0x162C DUP2 PUSH2 0x147B JUMP JUMPDEST DUP5 ADD SWAP2 POP POP SWAP3 SWAP2 POP POP JUMP JUMPDEST PUSH1 0x0 PUSH1 0xE0 DUP3 ADD SWAP1 POP PUSH2 0x164C PUSH1 0x0 DUP4 ADD DUP11 PUSH2 0x133A JUMP JUMPDEST DUP2 DUP2 SUB PUSH1 0x20 DUP4 ADD MSTORE PUSH2 0x165E DUP2 DUP10 PUSH2 0x15FE JUMP JUMPDEST SWAP1 POP PUSH2 0x166D PUSH1 0x40 DUP4 ADD DUP9 PUSH2 0x15C3 JUMP JUMPDEST PUSH2 0x167A PUSH1 0x60 DUP4 ADD DUP8 PUSH2 0x133A JUMP JUMPDEST PUSH2 0x1687 PUSH1 0x80 DUP4 ADD DUP7 PUSH2 0x133A JUMP JUMPDEST PUSH2 0x1694 PUSH1 0xA0 DUP4 ADD DUP6 PUSH2 0x133A JUMP JUMPDEST PUSH2 0x16A1 PUSH1 0xC0 DUP4 ADD DUP5 PUSH2 0x15C3 JUMP JUMPDEST SWAP9 SWAP8 POP POP POP POP POP POP POP POP JUMP JUMPDEST PUSH1 0x0 DUP1 REVERT JUMPDEST PUSH1 0x0 DUP1 REVERT JUMPDEST PUSH32 0x4E487B7100000000000000000000000000000000000000000000000000000000 PUSH1 0x0 MSTORE PUSH1 0x41 PUSH1 0x4 MSTORE PUSH1 0x24 PUSH1 0x0 REVERT JUMPDEST PUSH2 0x16EF DUP3 PUSH2 0x147B JUMP JUMPDEST DUP2 ADD DUP2 DUP2 LT PUSH8 0xFFFFFFFFFFFFFFFF DUP3 GT OR ISZERO PUSH2 0x170E JUMPI PUSH2 0x170D PUSH2 0x16B7 JUMP JUMPDEST JUMPDEST DUP1 PUSH1 0x40 MSTORE POP POP POP JUMP JUMPDEST PUSH1 0x0 PUSH2 0x1721 PUSH2 0x11F0 JUMP JUMPDEST SWAP1 POP PUSH2 0x172D DUP3 DUP3 PUSH2 0x16E6 JUMP JUMPDEST SWAP2 SWAP1 POP JUMP JUMPDEST PUSH1 0x0 PUSH8 0xFFFFFFFFFFFFFFFF DUP3 GT ISZERO PUSH2 0x174D JUMPI PUSH2 0x174C PUSH2 0x16B7 JUMP JUMPDEST JUMPDEST PUSH2 0x1756 DUP3 PUSH2 0x147B JUMP JUMPDEST SWAP1 POP PUSH1 0x20 DUP2 ADD SWAP1 POP SWAP2 SWAP1 POP JUMP JUMPDEST DUP3 DUP2 DUP4 CALLDATACOPY PUSH1 0x0 DUP4 DUP4 ADD MSTORE POP POP POP JUMP JUMPDEST PUSH1 0x0 PUSH2 0x1785 PUSH2 0x1780 DUP5 PUSH2 0x1732 JUMP JUMPDEST PUSH2 0x1717 JUMP JUMPDEST SWAP1 POP DUP3 DUP2 MSTORE PUSH1 0x20 DUP2 ADD DUP5 DUP5 DUP5 ADD GT ISZERO PUSH2 0x17A1 JUMPI PUSH2 0x17A0 PUSH2 0x16B2 JUMP JUMPDEST JUMPDEST PUSH2 0x17AC DUP5 DUP3 DUP6 PUSH2 0x1763 JUMP JUMPDEST POP SWAP4 SWAP3 POP POP POP JUMP JUMPDEST PUSH1 0x0 DUP3 PUSH1 0x1F DUP4 ADD SLT PUSH2 0x17C9 JUMPI PUSH2 0x17C8 PUSH2 0x16AD JUMP JUMPDEST JUMPDEST DUP2 CALLDATALOAD PUSH2 0x17D9 DUP5 DUP3 PUSH1 0x20 DUP7 ADD PUSH2 0x1772 JUMP JUMPDEST SWAP2 POP POP SWAP3 SWAP2 POP POP JUMP JUMPDEST PUSH2 0x17EB DUP2 PUSH2 0x1296 JUMP JUMPDEST DUP2 EQ PUSH2 0x17F6 JUMPI PUSH1 0x0 DUP1 REVERT JUMPDEST POP JUMP JUMPDEST PUSH1 0x0 DUP2 CALLDATALOAD SWAP1 POP PUSH2 0x1808 DUP2 PUSH2 0x17E2 JUMP JUMPDEST SWAP3 SWAP2 POP POP JUMP JUMPDEST PUSH1 0x0 DUP1 PUSH1 0x0 DUP1 PUSH1 0x80 DUP6 DUP8 SUB SLT ISZERO PUSH2 0x1828 JUMPI PUSH2 0x1827 PUSH2 0x11FA JUMP JUMPDEST JUMPDEST PUSH1 0x0 DUP6 ADD CALLDATALOAD PUSH8 0xFFFFFFFFFFFFFFFF DUP2 GT ISZERO PUSH2 0x1846 JUMPI PUSH2 0x1845 PUSH2 0x11FF JUMP JUMPDEST JUMPDEST PUSH2 0x1852 DUP8 DUP3 DUP9 ADD PUSH2 0x17B4 JUMP JUMPDEST SWAP5 POP POP PUSH1 0x20 PUSH2 0x1863 DUP8 DUP3 DUP9 ADD PUSH2 0x1225 JUMP JUMPDEST SWAP4 POP POP PUSH1 0x40 PUSH2 0x1874 DUP8 DUP3 DUP9 ADD PUSH2 0x1225 JUMP JUMPDEST SWAP3 POP POP PUSH1 0x60 PUSH2 0x1885 DUP8 DUP3 DUP9 ADD PUSH2 0x17F9 JUMP JUMPDEST SWAP2 POP POP SWAP3 SWAP6 SWAP2 SWAP5 POP SWAP3 POP JUMP JUMPDEST PUSH1 0x0 PUSH1 0x20 DUP3 DUP5 SUB SLT ISZERO PUSH2 0x18A7 JUMPI PUSH2 0x18A6 PUSH2 0x11FA JUMP JUMPDEST JUMPDEST PUSH1 0x0 PUSH2 0x18B5 DUP5 DUP3 DUP6 ADD PUSH2 0x17F9 JUMP JUMPDEST SWAP2 POP POP SWAP3 SWAP2 POP POP JUMP JUMPDEST PUSH1 0x0 PUSH1 0xA0 DUP3 ADD SWAP1 POP PUSH2 0x18D3 PUSH1 0x0 DUP4 ADD DUP9 PUSH2 0x133A JUMP JUMPDEST PUSH2 0x18E0 PUSH1 0x20 DUP4 ADD DUP8 PUSH2 0x133A JUMP JUMPDEST PUSH2 0x18ED PUSH1 0x40 DUP4 ADD DUP7 PUSH2 0x15C3 JUMP JUMPDEST PUSH2 0x18FA PUSH1 0x60 DUP4 ADD DUP6 PUSH2 0x133A JUMP JUMPDEST PUSH2 0x1907 PUSH1 0x80 DUP4 ADD DUP5 PUSH2 0x133A JUMP JUMPDEST SWAP7 SWAP6 POP POP POP POP POP POP JUMP JUMPDEST PUSH32 0x4E487B7100000000000000000000000000000000000000000000000000000000 PUSH1 0x0 MSTORE PUSH1 0x32 PUSH1 0x4 MSTORE PUSH1 0x24 PUSH1 0x0 REVERT JUMPDEST PUSH32 0x4E487B7100000000000000000000000000000000000000000000000000000000 PUSH1 0x0 MSTORE PUSH1 0x22 PUSH1 0x4 MSTORE PUSH1 0x24 PUSH1 0x0 REVERT JUMPDEST PUSH1 0x0 PUSH1 0x2 DUP3 DIV SWAP1 POP PUSH1 0x1 DUP3 AND DUP1 PUSH2 0x1987 JUMPI PUSH1 0x7F DUP3 AND SWAP2 POP JUMPDEST PUSH1 0x20 DUP3 LT DUP2 SUB PUSH2 0x199A JUMPI PUSH2 0x1999 PUSH2 0x1940 JUMP JUMPDEST JUMPDEST POP SWAP2 SWAP1 POP JUMP JUMPDEST PUSH32 0x4672616D6520646F6573206E6F74206578697374000000000000000000000000 PUSH1 0x0 DUP3 ADD MSTORE POP JUMP JUMPDEST PUSH1 0x0 PUSH2 0x19D6 PUSH1 0x14 DUP4 PUSH2 0x15ED JUMP JUMPDEST SWAP2 POP PUSH2 0x19E1 DUP3 PUSH2 0x19A0 JUMP JUMPDEST PUSH1 0x20 DUP3 ADD SWAP1 POP SWAP2 SWAP1 POP JUMP JUMPDEST PUSH1 0x0 PUSH1 0x20 DUP3 ADD SWAP1 POP DUP2 DUP2 SUB PUSH1 0x0 DUP4 ADD MSTORE PUSH2 0x1A05 DUP2 PUSH2 0x19C9 JUMP JUMPDEST SWAP1 POP SWAP2 SWAP1 POP JUMP JUMPDEST PUSH32 0x416C6C207265776172647320636C61696D656400000000000000000000000000 PUSH1 0x0 DUP3 ADD MSTORE POP JUMP JUMPDEST PUSH1 0x0 PUSH2 0x1A42 PUSH1 0x13 DUP4 PUSH2 0x15ED JUMP JUMPDEST SWAP2 POP PUSH2 0x1A4D DUP3 PUSH2 0x1A0C JUMP JUMPDEST PUSH1 0x20 DUP3 ADD SWAP1 POP SWAP2 SWAP1 POP JUMP JUMPDEST PUSH1 0x0 PUSH1 0x20 DUP3 ADD SWAP1 POP DUP2 DUP2 SUB PUSH1 0x0 DUP4 ADD MSTORE PUSH2 0x1A71 DUP2 PUSH2 0x1A35 JUMP JUMPDEST SWAP1 POP SWAP2 SWAP1 POP JUMP JUMPDEST PUSH1 0x0 PUSH1 0x40 DUP3 ADD SWAP1 POP PUSH2 0x1A8D PUSH1 0x0 DUP4 ADD DUP6 PUSH2 0x15C3 JUMP JUMPDEST PUSH2 0x1A9A PUSH1 0x20 DUP4 ADD DUP5 PUSH2 0x133A JUMP JUMPDEST SWAP4 SWAP3 POP POP POP JUMP JUMPDEST PUSH1 0x0 DUP2 ISZERO ISZERO SWAP1 POP SWAP2 SWAP1 POP JUMP JUMPDEST PUSH2 0x1AB6 DUP2 PUSH2 0x1AA1 JUMP JUMPDEST DUP2 EQ PUSH2 0x1AC1 JUMPI PUSH1 0x0 DUP1 REVERT JUMPDEST POP JUMP JUMPDEST PUSH1 0x0 DUP2 MLOAD SWAP1 POP PUSH2 0x1AD3 DUP2 PUSH2 0x1AAD JUMP JUMPDEST SWAP3 SWAP2 POP POP JUMP JUMPDEST PUSH1 0x0 PUSH1 0x20 DUP3 DUP5 SUB SLT ISZERO PUSH2 0x1AEF JUMPI PUSH2 0x1AEE PUSH2 0x11FA JUMP JUMPDEST JUMPDEST PUSH1 0x0 PUSH2 0x1AFD DUP5 DUP3 DUP6 ADD PUSH2 0x1AC4 JUMP JUMPDEST SWAP2 POP POP SWAP3 SWAP2 POP POP JUMP JUMPDEST PUSH32 0x4E487B7100000000000000000000000000000000000000000000000000000000 PUSH1 0x0 MSTORE PUSH1 0x11 PUSH1 0x4 MSTORE PUSH1 0x24 PUSH1 0x0 REVERT JUMPDEST PUSH1 0x0 PUSH2 0x1B40 DUP3 PUSH2 0x1204 JUMP JUMPDEST SWAP2 POP PUSH2 0x1B4B DUP4 PUSH2 0x1204 JUMP JUMPDEST SWAP3 POP DUP3 DUP3 SUB SWAP1 POP DUP2 DUP2 GT ISZERO PUSH2 0x1B63 JUMPI PUSH2 0x1B62 PUSH2 0x1B06 JUMP JUMPDEST JUMPDEST SWAP3 SWAP2 POP POP JUMP JUMPDEST PUSH1 0x0 DUP2 SWAP1 POP DUP2 PUSH1 0x0 MSTORE PUSH1 0x20 PUSH1 0x0 KECCAK256 SWAP1 POP SWAP2 SWAP1 POP JUMP JUMPDEST PUSH1 0x0 PUSH1 0x20 PUSH1 0x1F DUP4 ADD DIV SWAP1 POP SWAP2 SWAP1 POP JUMP JUMPDEST PUSH1 0x0 DUP3 DUP3 SHL SWAP1 POP SWAP3 SWAP2 POP POP JUMP JUMPDEST PUSH1 0x0 PUSH1 0x8 DUP4 MUL PUSH2 0x1BCB PUSH32 0xFFFFFFFFFFFFFFFFFFFFFFFFFFFFFFFFFFFFFFFFFFFFFFFFFFFFFFFFFFFFFFFF DUP3 PUSH2 0x1B8E JUMP JUMPDEST PUSH2 0x1BD5 DUP7 DUP4 PUSH2 0x1B8E JUMP JUMPDEST SWAP6 POP DUP1 NOT DUP5 AND SWAP4 POP DUP1 DUP7 AND DUP5 OR SWAP3 POP POP POP SWAP4 SWAP3 POP POP POP JUMP JUMPDEST PUSH1 0x0 DUP2 SWAP1 POP SWAP2 SWAP1 POP JUMP JUMPDEST PUSH1 0x0 PUSH2 0x1C12 PUSH2 0x1C0D PUSH2 0x1C08 DUP5 PUSH2 0x1204 JUMP JUMPDEST PUSH2 0x1BED JUMP JUMPDEST PUSH2 0x1204 JUMP JUMPDEST SWAP1 POP SWAP2 SWAP1 POP JUMP JUMPDEST PUSH1 0x0 DUP2 SWAP1 POP SWAP2 SWAP1 POP JUMP JUMPDEST PUSH2 0x1C2C DUP4 PUSH2 0x1BF7 JUMP JUMPDEST PUSH2 0x1C40 PUSH2 0x1C38 DUP3 PUSH2 0x1C19 JUMP JUMPDEST DUP5 DUP5 SLOAD PUSH2 0x1B9B JUMP JUMPDEST DUP3 SSTORE POP POP POP POP JUMP JUMPDEST PUSH1 0x0 SWAP1 JUMP JUMPDEST PUSH2 0x1C55 PUSH2 0x1C48 JUMP JUMPDEST PUSH2 0x1C60 DUP2 DUP5 DUP5 PUSH2 0x1C23 JUMP JUMPDEST POP POP POP JUMP JUMPDEST JUMPDEST DUP2 DUP2 LT ISZERO PUSH2 0x1C84 JUMPI PUSH2 0x1C79 PUSH1 0x0 DUP3 PUSH2 0x1C4D JUMP JUMPDEST PUSH1 0x1 DUP2 ADD SWAP1 POP PUSH2 0x1C66 JUMP JUMPDEST POP POP JUMP JUMPDEST PUSH1 0x1F DUP3 GT ISZERO PUSH2 0x1CC9 JUMPI PUSH2 0x1C9A DUP2 PUSH2 0x1B69 JUMP JUMPDEST PUSH2 0x1CA3 DUP5 PUSH2 0x1B7E JUMP JUMPDEST DUP2 ADD PUSH1 0x20 DUP6 LT ISZERO PUSH2 0x1CB2 JUMPI DUP2 SWAP1 POP JUMPDEST PUSH2 0x1CC6 PUSH2 0x1CBE DUP6 PUSH2 0x1B7E JUMP JUMPDEST DUP4 ADD DUP3 PUSH2 0x1C65 JUMP JUMPDEST POP POP JUMPDEST POP POP POP JUMP JUMPDEST PUSH1 0x0 DUP3 DUP3 SHR SWAP1 POP SWAP3 SWAP2 POP POP JUMP JUMPDEST PUSH1 0x0 PUSH2 0x1CEC PUSH1 0x0 NOT DUP5 PUSH1 0x8 MUL PUSH2 0x1CCE JUMP JUMPDEST NOT DUP1 DUP4 AND SWAP2 POP POP SWAP3 SWAP2 POP POP JUMP JUMPDEST PUSH1 0x0 PUSH2 0x1D05 DUP4 DUP4 PUSH2 0x1CDB JUMP JUMPDEST SWAP2 POP DUP3 PUSH1 0x2 MUL DUP3 OR SWAP1 POP SWAP3 SWAP2 POP POP JUMP JUMPDEST PUSH2 0x1D1E DUP3 PUSH2 0x1435 JUMP JUMPDEST PUSH8 0xFFFFFFFFFFFFFFFF DUP2 GT ISZERO PUSH2 0x1D37 JUMPI PUSH2 0x1D36 PUSH2 0x16B7 JUMP JUMPDEST JUMPDEST PUSH2 0x1D41 DUP3 SLOAD PUSH2 0x196F JUMP JUMPDEST PUSH2 0x1D4C DUP3 DUP3 DUP6 PUSH2 0x1C88 JUMP JUMPDEST PUSH1 0x0 PUSH1 0x20 SWAP1 POP PUSH1 0x1F DUP4 GT PUSH1 0x1 DUP2 EQ PUSH2 0x1D7F JUMPI PUSH1 0x0 DUP5 ISZERO PUSH2 0x1D6D JUMPI DUP3 DUP8 ADD MLOAD SWAP1 POP JUMPDEST PUSH2 0x1D77 DUP6 DUP3 PUSH2 0x1CF9 JUMP JUMPDEST DUP7 SSTORE POP PUSH2 0x1DDF JUMP JUMPDEST PUSH1 0x1F NOT DUP5 AND PUSH2 0x1D8D DUP7 PUSH2 0x1B69 JUMP JUMPDEST PUSH1 0x0 JUMPDEST DUP3 DUP2 LT ISZERO PUSH2 0x1DB5 JUMPI DUP5 DUP10 ADD MLOAD DUP3 SSTORE PUSH1 0x1 DUP3 ADD SWAP2 POP PUSH1 0x20 DUP6 ADD SWAP5 POP PUSH1 0x20 DUP2 ADD SWAP1 POP PUSH2 0x1D90 JUMP JUMPDEST DUP7 DUP4 LT ISZERO PUSH2 0x1DD2 JUMPI DUP5 DUP10 ADD MLOAD PUSH2 0x1DCE PUSH1 0x1F DUP10 AND DUP3 PUSH2 0x1CDB JUMP JUMPDEST DUP4 SSTORE POP JUMPDEST PUSH1 0x1 PUSH1 0x2 DUP9 MUL ADD DUP9 SSTORE POP POP POP JUMPDEST POP POP POP POP POP POP JUMP JUMPDEST PUSH1 0x0 PUSH1 0x40 DUP3 ADD SWAP1 POP PUSH2 0x1DFC PUSH1 0x0 DUP4 ADD DUP6 PUSH2 0x15C3 JUMP JUMPDEST PUSH2 0x1E09 PUSH1 0x20 DUP4 ADD DUP5 PUSH2 0x15C3 JUMP JUMPDEST SWAP4 SWAP3 POP POP POP JUMP JUMPDEST PUSH1 0x0 DUP2 MLOAD SWAP1 POP PUSH2 0x1E1F DUP2 PUSH2 0x120E JUMP JUMPDEST SWAP3 SWAP2 POP POP JUMP JUMPDEST PUSH1 0x0 PUSH1 0x20 DUP3 DUP5 SUB SLT ISZERO PUSH2 0x1E3B JUMPI PUSH2 0x1E3A PUSH2 0x11FA JUMP JUMPDEST JUMPDEST PUSH1 0x0 PUSH2 0x1E49 DUP5 DUP3 DUP6 ADD PUSH2 0x1E10 JUMP JUMPDEST SWAP2 POP POP SWAP3 SWAP2 POP POP JUMP JUMPDEST PUSH32 0x4E6F7420656E6F75676820616C6C6F77616E6365000000000000000000000000 PUSH1 0x0 DUP3 ADD MSTORE POP JUMP JUMPDEST PUSH1 0x0 PUSH2 0x1E88 PUSH1 0x14 DUP4 PUSH2 0x15ED JUMP JUMPDEST SWAP2 POP PUSH2 0x1E93 DUP3 PUSH2 0x1E52 JUMP JUMPDEST PUSH1 0x20 DUP3 ADD SWAP1 POP SWAP2 SWAP1 POP JUMP JUMPDEST PUSH1 0x0 PUSH1 0x20 DUP3 ADD SWAP1 POP DUP2 DUP2 SUB PUSH1 0x0 DUP4 ADD MSTORE PUSH2 0x1EB7 DUP2 PUSH2 0x1E7B JUMP JUMPDEST SWAP1 POP SWAP2 SWAP1 POP JUMP JUMPDEST PUSH1 0x0 PUSH1 0x60 DUP3 ADD SWAP1 POP PUSH2 0x1ED3 PUSH1 0x0 DUP4 ADD DUP7 PUSH2 0x15C3 JUMP JUMPDEST PUSH2 0x1EE0 PUSH1 0x20 DUP4 ADD DUP6 PUSH2 0x15C3 JUMP JUMPDEST PUSH2 0x1EED PUSH1 0x40 DUP4 ADD DUP5 PUSH2 0x133A JUMP JUMPDEST SWAP5 SWAP4 POP POP POP POP JUMP JUMPDEST PUSH1 0x0 PUSH1 0xC0 DUP3 ADD SWAP1 POP PUSH2 0x1F0A PUSH1 0x0 DUP4 ADD DUP10 PUSH2 0x133A JUMP JUMPDEST DUP2 DUP2 SUB PUSH1 0x20 DUP4 ADD MSTORE PUSH2 0x1F1C DUP2 DUP9 PUSH2 0x15FE JUMP JUMPDEST SWAP1 POP PUSH2 0x1F2B PUSH1 0x40 DUP4 ADD DUP8 PUSH2 0x133A JUMP JUMPDEST PUSH2 0x1F38 PUSH1 0x60 DUP4 ADD DUP7 PUSH2 0x133A JUMP JUMPDEST PUSH2 0x1F45 PUSH1 0x80 DUP4 ADD DUP6 PUSH2 0x133A JUMP JUMPDEST PUSH2 0x1F52 PUSH1 0xA0 DUP4 ADD DUP5 PUSH2 0x15C3 JUMP JUMPDEST SWAP8 SWAP7 POP POP POP POP POP POP POP JUMP INVALID LOG2 PUSH5 0x6970667358 0x22 SLT KECCAK256 DIV 0x27 DUP16 0xE6 0xD6 LT PUSH1 0xA1 0xC3 LOG3 0xF 0xD8 LOG4 TIMESTAMP PUSH12 0xA512DE8D92258605A1FD76AD 0xE2 0xB1 0x23 0xDF ADDRESS PUSH5 0x736F6C6343 STOP ADDMOD XOR STOP CALLER "
        },
        "methodIdentifiers": {
          "claimReward(uint256)": "ae169a50",
          "createFrame(string,uint256,uint256,address)": "afc4484f",
          "frameRewards(uint256,uint256)": "7921938b",
          "frames(uint256)": "a10340bc",
          "getFrame(uint256)": "773d51eb",
          "getFrameCount()": "92d63880",
          "getFrameRewardCount(uint256)": "4a665127",
          "getFrameRewardIds(uint256)": "553705e9",
          "getReward(uint256)": "1c4b774b",
          "getRewardCount()": "7e7e8eec",
          "owner()": "8da5cb5b",
          "renounceOwnership()": "715018a6",
          "rewards(uint256)": "f301af42",
          "transferOwnership(address)": "f2fde38b"
        }
      }
    }
  }
}